{
  "_format": "hh-sol-artifact-1",
  "contractName": "LogarithmicCurve",
  "sourceName": "contracts/curves/LogarithmicCurve.sol",
  "abi": [
    {
      "inputs": [
        {
          "internalType": "uint256",
          "name": "_multiplier",
          "type": "uint256"
        }
      ],
      "stateMutability": "nonpayable",
      "type": "constructor"
    },
    {
      "anonymous": false,
      "inputs": [
        {
          "indexed": false,
          "internalType": "uint256",
          "name": "oldPrice",
          "type": "uint256"
        },
        {
          "indexed": false,
          "internalType": "uint256",
          "name": "newPrice",
          "type": "uint256"
        },
        {
          "indexed": false,
          "internalType": "uint256",
          "name": "timestamp",
          "type": "uint256"
        }
      ],
      "name": "PriceUpdate",
      "type": "event"
    },
    {
      "anonymous": false,
      "inputs": [
        {
          "indexed": false,
          "internalType": "uint256",
          "name": "volume",
          "type": "uint256"
        },
        {
          "indexed": false,
          "internalType": "bool",
          "name": "isBuy",
          "type": "bool"
        },
        {
          "indexed": false,
          "internalType": "uint256",
          "name": "timestamp",
          "type": "uint256"
        }
      ],
      "name": "VolumeUpdate",
      "type": "event"
    },
    {
      "inputs": [],
      "name": "BASE_PRICE",
      "outputs": [
        {
          "internalType": "uint256",
          "name": "",
          "type": "uint256"
        }
      ],
      "stateMutability": "view",
      "type": "function"
    },
    {
      "inputs": [],
      "name": "PRECISION",
      "outputs": [
        {
          "internalType": "uint256",
          "name": "",
          "type": "uint256"
        }
      ],
      "stateMutability": "view",
      "type": "function"
    },
    {
      "inputs": [
        {
          "internalType": "uint256",
          "name": "supply",
          "type": "uint256"
        },
        {
          "internalType": "uint256",
          "name": "amount",
          "type": "uint256"
        }
      ],
      "name": "calculatePurchaseReturn",
      "outputs": [
        {
          "internalType": "uint256",
          "name": "",
          "type": "uint256"
        }
      ],
      "stateMutability": "view",
      "type": "function"
    },
    {
      "inputs": [
        {
          "internalType": "uint256",
          "name": "supply",
          "type": "uint256"
        },
        {
          "internalType": "uint256",
          "name": "amount",
          "type": "uint256"
        }
      ],
      "name": "calculateSaleReturn",
      "outputs": [
        {
          "internalType": "uint256",
          "name": "",
          "type": "uint256"
        }
      ],
      "stateMutability": "view",
      "type": "function"
    },
    {
      "inputs": [
        {
          "internalType": "uint256",
          "name": "supply",
          "type": "uint256"
        }
      ],
      "name": "getCurrentPrice",
      "outputs": [
        {
          "internalType": "uint256",
          "name": "",
          "type": "uint256"
        }
      ],
      "stateMutability": "view",
      "type": "function"
    },
    {
      "inputs": [],
      "name": "getPrecision",
      "outputs": [
        {
          "internalType": "uint256",
          "name": "",
          "type": "uint256"
        }
      ],
      "stateMutability": "pure",
      "type": "function"
    },
    {
      "inputs": [
        {
          "internalType": "uint256",
          "name": "supply",
          "type": "uint256"
        },
        {
          "internalType": "uint256",
          "name": "amount",
          "type": "uint256"
        },
        {
          "internalType": "bool",
          "name": "isBuy",
          "type": "bool"
        }
      ],
      "name": "getPriceImpact",
      "outputs": [
        {
          "internalType": "uint256",
          "name": "",
          "type": "uint256"
        }
      ],
      "stateMutability": "view",
      "type": "function"
    },
    {
      "inputs": [],
      "name": "getSlope",
      "outputs": [
        {
          "internalType": "uint256",
          "name": "",
          "type": "uint256"
        }
      ],
      "stateMutability": "view",
      "type": "function"
    },
    {
      "inputs": [
        {
          "internalType": "uint256",
          "name": "supply",
          "type": "uint256"
        }
      ],
      "name": "getSpotPrice",
      "outputs": [
        {
          "internalType": "uint256",
          "name": "",
          "type": "uint256"
        }
      ],
      "stateMutability": "view",
      "type": "function"
    },
    {
      "inputs": [],
      "name": "lastPrice",
      "outputs": [
        {
          "internalType": "uint256",
          "name": "",
          "type": "uint256"
        }
      ],
      "stateMutability": "view",
      "type": "function"
    },
    {
      "inputs": [],
      "name": "lastUpdateTime",
      "outputs": [
        {
          "internalType": "uint256",
          "name": "",
          "type": "uint256"
        }
      ],
      "stateMutability": "view",
      "type": "function"
    },
    {
      "inputs": [],
      "name": "multiplier",
      "outputs": [
        {
          "internalType": "uint256",
          "name": "",
          "type": "uint256"
        }
      ],
      "stateMutability": "view",
      "type": "function"
    },
    {
      "inputs": [],
      "name": "totalVolume",
      "outputs": [
        {
          "internalType": "uint256",
          "name": "",
          "type": "uint256"
        }
      ],
      "stateMutability": "view",
      "type": "function"
    }
  ],
  "bytecode": "0x6080604052348015600f57600080fd5b506040516106de3803806106de833981016040819052602c916043565b6000554260035567016345785d8a0000600255605b565b600060208284031215605457600080fd5b5051919050565b6106748061006a6000396000f3fe608060405234801561001057600080fd5b50600436106100cf5760003560e01c806379c84f9c1161008c578063ace4e82411610066578063ace4e8241461015f578063c55d0f5614610102578063c8f33c9114610172578063f86325ed1461017b57600080fd5b806379c84f9c1461013a5780639670c0bc14610142578063aaf5eb681461015057600080fd5b8063053f14da146100d4578063071f8521146100ef5780630fda366d146101025780631b3ed72214610115578063412448291461011e5780635f81a57c14610131575b600080fd5b6100dd60025481565b60405190815260200160405180910390f35b6100dd6100fd366004610518565b61018a565b6100dd61011036600461053a565b61022f565b6100dd60005481565b6100dd61012c366004610553565b61023a565b6100dd60015481565b6000546100dd565b670de0b6b3a76400006100dd565b6100dd670de0b6b3a764000081565b6100dd61016d366004610518565b6102e6565b6100dd60035481565b6100dd67016345785d8a000081565b60008183116101d35760405162461bcd60e51b815260206004820152601060248201526f416d6f756e7420746f6f206c6172676560801b60448201526064015b60405180910390fd5b600060026101e96101e485876105a7565b61033c565b6101f28661033c565b6101fc91906105ba565b61020691906105cd565b9050670de0b6b3a764000061021b82856105ef565b61022591906105cd565b9150505b92915050565b60006102298261033c565b6000806102468561033c565b90506000836102615761025c6101e486886105a7565b61026e565b61026e6101e486886105ba565b905083156102b957818111610288576000925050506102df565b81670de0b6b3a764000061029c82846105a7565b6102a691906105ef565b6102b091906105cd565b925050506102df565b8181106102cb576000925050506102df565b81670de0b6b3a764000061029c83836105a7565b9392505050565b60008260000361031c5767016345785d8a000061030b670de0b6b3a7640000846105ef565b61031591906105cd565b9050610229565b60006103278461033c565b90508061021b670de0b6b3a7640000856105ef565b600081600003610355575067016345785d8a0000919050565b60008054670de0b6b3a76400009061037561037083876105ba565b6103c2565b61037f91906105ef565b61038991906105cd565b9050670de0b6b3a76400006103a68267016345785d8a00006105ef565b6103b091906105cd565b6102df9067016345785d8a00006105ba565b60008082116104035760405162461bcd60e51b815260206004820152600d60248201526c125b9d985b1a59081a5b9c1d5d609a1b60448201526064016101ca565b60005b610419670de0b6b3a764000060026105ef565b831061046957610431670de0b6b3a7640000826105ba565b9050610446670de0b6b3a764000060026105ef565b610458670de0b6b3a7640000856105ef565b61046291906105cd565b9250610406565b82670de0b6b3a764000061047d81836105a7565b61048791906105ef565b61049191906105cd565b92508261049e81836105ba565b915060025b600a8160ff161161050f576104c3670de0b6b3a764000060ff83166105ef565b6104ce600183610606565b60ff166104db87856105ef565b6104e591906105ef565b6104ef91906105cd565b91506104fb82846105ba565b9250806105078161061f565b9150506104a3565b50909392505050565b6000806040838503121561052b57600080fd5b50508035926020909101359150565b60006020828403121561054c57600080fd5b5035919050565b60008060006060848603121561056857600080fd5b83359250602084013591506040840135801515811461058657600080fd5b809150509250925092565b634e487b7160e01b600052601160045260246000fd5b8181038181111561022957610229610591565b8082018082111561022957610229610591565b6000826105ea57634e487b7160e01b600052601260045260246000fd5b500490565b808202811582820484141761022957610229610591565b60ff828116828216039081111561022957610229610591565b600060ff821660ff810361063557610635610591565b6001019291505056fea2646970667358221220d155e14fe7cd962ab56772ad50a72d2d7f3bc30455c003ae878f5bc6ebe1026f64736f6c634300081b0033",
  "linkReferences": {},
  "deployedLinkReferences": {}
}