{
  "_format": "hh-sol-artifact-1",
  "contractName": "LinearCurve",
  "sourceName": "contracts/curves/LinearCurve.sol",
  "abi": [
    {
      "inputs": [
        {
          "internalType": "uint256",
          "name": "_slope",
          "type": "uint256"
        }
      ],
      "stateMutability": "nonpayable",
      "type": "constructor"
    },
    {
      "anonymous": false,
      "inputs": [
        {
          "indexed": false,
          "internalType": "uint256",
          "name": "oldPrice",
          "type": "uint256"
        },
        {
          "indexed": false,
          "internalType": "uint256",
          "name": "newPrice",
          "type": "uint256"
        },
        {
          "indexed": false,
          "internalType": "uint256",
          "name": "timestamp",
          "type": "uint256"
        }
      ],
      "name": "PriceUpdate",
      "type": "event"
    },
    {
      "anonymous": false,
      "inputs": [
        {
          "indexed": false,
          "internalType": "uint256",
          "name": "volume",
          "type": "uint256"
        },
        {
          "indexed": false,
          "internalType": "bool",
          "name": "isBuy",
          "type": "bool"
        },
        {
          "indexed": false,
          "internalType": "uint256",
          "name": "timestamp",
          "type": "uint256"
        }
      ],
      "name": "VolumeUpdate",
      "type": "event"
    },
    {
      "inputs": [],
      "name": "BASE_PRICE",
      "outputs": [
        {
          "internalType": "uint256",
          "name": "",
          "type": "uint256"
        }
      ],
      "stateMutability": "view",
      "type": "function"
    },
    {
      "inputs": [],
      "name": "PRECISION",
      "outputs": [
        {
          "internalType": "uint256",
          "name": "",
          "type": "uint256"
        }
      ],
      "stateMutability": "view",
      "type": "function"
    },
    {
      "inputs": [
        {
          "internalType": "uint256",
          "name": "supply",
          "type": "uint256"
        },
        {
          "internalType": "uint256",
          "name": "amount",
          "type": "uint256"
        }
      ],
      "name": "calculatePurchaseReturn",
      "outputs": [
        {
          "internalType": "uint256",
          "name": "",
          "type": "uint256"
        }
      ],
      "stateMutability": "view",
      "type": "function"
    },
    {
      "inputs": [
        {
          "internalType": "uint256",
          "name": "supply",
          "type": "uint256"
        },
        {
          "internalType": "uint256",
          "name": "amount",
          "type": "uint256"
        }
      ],
      "name": "calculateSaleReturn",
      "outputs": [
        {
          "internalType": "uint256",
          "name": "",
          "type": "uint256"
        }
      ],
      "stateMutability": "view",
      "type": "function"
    },
    {
      "inputs": [
        {
          "internalType": "uint256",
          "name": "supply",
          "type": "uint256"
        }
      ],
      "name": "getCurrentPrice",
      "outputs": [
        {
          "internalType": "uint256",
          "name": "",
          "type": "uint256"
        }
      ],
      "stateMutability": "view",
      "type": "function"
    },
    {
      "inputs": [],
      "name": "getPrecision",
      "outputs": [
        {
          "internalType": "uint256",
          "name": "",
          "type": "uint256"
        }
      ],
      "stateMutability": "pure",
      "type": "function"
    },
    {
      "inputs": [
        {
          "internalType": "uint256",
          "name": "supply",
          "type": "uint256"
        },
        {
          "internalType": "uint256",
          "name": "amount",
          "type": "uint256"
        },
        {
          "internalType": "bool",
          "name": "isBuy",
          "type": "bool"
        }
      ],
      "name": "getPriceImpact",
      "outputs": [
        {
          "internalType": "uint256",
          "name": "",
          "type": "uint256"
        }
      ],
      "stateMutability": "view",
      "type": "function"
    },
    {
      "inputs": [],
      "name": "getSlope",
      "outputs": [
        {
          "internalType": "uint256",
          "name": "",
          "type": "uint256"
        }
      ],
      "stateMutability": "view",
      "type": "function"
    },
    {
      "inputs": [
        {
          "internalType": "uint256",
          "name": "supply",
          "type": "uint256"
        }
      ],
      "name": "getSpotPrice",
      "outputs": [
        {
          "internalType": "uint256",
          "name": "",
          "type": "uint256"
        }
      ],
      "stateMutability": "view",
      "type": "function"
    },
    {
      "inputs": [],
      "name": "lastPrice",
      "outputs": [
        {
          "internalType": "uint256",
          "name": "",
          "type": "uint256"
        }
      ],
      "stateMutability": "view",
      "type": "function"
    },
    {
      "inputs": [],
      "name": "lastUpdateTime",
      "outputs": [
        {
          "internalType": "uint256",
          "name": "",
          "type": "uint256"
        }
      ],
      "stateMutability": "view",
      "type": "function"
    },
    {
      "inputs": [],
      "name": "slope",
      "outputs": [
        {
          "internalType": "uint256",
          "name": "",
          "type": "uint256"
        }
      ],
      "stateMutability": "view",
      "type": "function"
    },
    {
      "inputs": [],
      "name": "totalVolume",
      "outputs": [
        {
          "internalType": "uint256",
          "name": "",
          "type": "uint256"
        }
      ],
      "stateMutability": "view",
      "type": "function"
    }
  ],
  "bytecode": "0x6080604052348015600f57600080fd5b5060405161062f38038061062f833981016040819052602c91604d565b60356002826065565b600055504260035567016345785d8a00006002556086565b600060208284031215605e57600080fd5b5051919050565b600082608157634e487b7160e01b600052601260045260246000fd5b500490565b61059a806100956000396000f3fe608060405234801561001057600080fd5b50600436106100cf5760003560e01c806383caf2751161008c578063ace4e82411610066578063ace4e8241461015f578063c55d0f5614610102578063c8f33c9114610172578063f86325ed1461017b57600080fd5b806383caf275146101395780639670c0bc14610142578063aaf5eb681461015057600080fd5b8063053f14da146100d4578063071f8521146100ef5780630fda366d1461010257806341244829146101155780635f81a57c1461012857806379c84f9c14610131575b600080fd5b6100dd60025481565b60405190815260200160405180910390f35b6100dd6100fd366004610476565b61018a565b6100dd610110366004610498565b610286565b6100dd6101233660046104b1565b6102bb565b6100dd60015481565b6000546100dd565b6100dd60005481565b670de0b6b3a76400006100dd565b6100dd670de0b6b3a764000081565b6100dd61016d366004610476565b61042b565b6100dd60035481565b6100dd67016345785d8a000081565b60008183116101d35760405162461bcd60e51b815260206004820152601060248201526f416d6f756e7420746f6f206c6172676560801b60448201526064015b60405180910390fd5b60006002670de0b6b3a764000060005485876101ef9190610505565b6101f99190610518565b610203919061052f565b67016345785d8a0000670de0b6b3a7640000600054886102239190610518565b61022d919061052f565b61023f9067016345785d8a0000610551565b6102499190610551565b6102539190610551565b61025d919061052f565b9050670de0b6b3a76400006102728285610518565b61027c919061052f565b9150505b92915050565b6000670de0b6b3a76400006000548361029f9190610518565b6102a9919061052f565b6102809067016345785d8a0000610551565b600080670de0b6b3a7640000600054866102d59190610518565b6102df919061052f565b6102f19067016345785d8a0000610551565b9050821561037c5760008054670de0b6b3a7640000906103118789610551565b61031b9190610518565b610325919061052f565b6103379067016345785d8a0000610551565b905081811161034b57600092505050610424565b81670de0b6b3a764000061035f8284610505565b6103699190610518565b610373919061052f565b92505050610424565b8484106103be5760405162461bcd60e51b815260206004820152601060248201526f416d6f756e7420746f6f206c6172676560801b60448201526064016101ca565b60008054670de0b6b3a7640000906103d68789610505565b6103e09190610518565b6103ea919061052f565b6103fc9067016345785d8a0000610551565b905081811061041057600092505050610424565b81670de0b6b3a764000061035f8383610505565b9392505050565b600080670de0b6b3a7640000600054856104459190610518565b61044f919061052f565b6104619067016345785d8a0000610551565b905080610272670de0b6b3a764000085610518565b6000806040838503121561048957600080fd5b50508035926020909101359150565b6000602082840312156104aa57600080fd5b5035919050565b6000806000606084860312156104c657600080fd5b8335925060208401359150604084013580151581146104e457600080fd5b809150509250925092565b634e487b7160e01b600052601160045260246000fd5b81810381811115610280576102806104ef565b8082028115828204841417610280576102806104ef565b60008261054c57634e487b7160e01b600052601260045260246000fd5b500490565b80820180821115610280576102806104ef56fea2646970667358221220afa924b90411665c4033d68e798e03cc871fc96f5511ce2d183945f7f4fb205764736f6c634300081b0033",
  "linkReferences": {},
  "deployedLinkReferences": {}
}