{
  "_format": "hh-sol-artifact-1",
  "contractName": "TokenFactory",
  "sourceName": "contracts/core/TokenFactory.sol",
  "abi": [
    {
      "inputs": [],
      "stateMutability": "nonpayable",
      "type": "constructor"
    },
    {
      "inputs": [
        {
          "internalType": "address",
          "name": "owner",
          "type": "address"
        }
      ],
      "name": "OwnableInvalidOwner",
      "type": "error"
    },
    {
      "inputs": [
        {
          "internalType": "address",
          "name": "account",
          "type": "address"
        }
      ],
      "name": "OwnableUnauthorizedAccount",
      "type": "error"
    },
    {
      "anonymous": false,
      "inputs": [
        {
          "indexed": true,
          "internalType": "address",
          "name": "previousOwner",
          "type": "address"
        },
        {
          "indexed": true,
          "internalType": "address",
          "name": "newOwner",
          "type": "address"
        }
      ],
      "name": "OwnershipTransferred",
      "type": "event"
    },
    {
      "anonymous": false,
      "inputs": [
        {
          "indexed": true,
          "internalType": "address",
          "name": "tokenAddress",
          "type": "address"
        },
        {
          "indexed": true,
          "internalType": "address",
          "name": "creator",
          "type": "address"
        },
        {
          "indexed": false,
          "internalType": "string",
          "name": "name",
          "type": "string"
        },
        {
          "indexed": false,
          "internalType": "string",
          "name": "symbol",
          "type": "string"
        },
        {
          "indexed": false,
          "internalType": "enum TokenFactory.CurveType",
          "name": "curveType",
          "type": "uint8"
        }
      ],
      "name": "TokenCreated",
      "type": "event"
    },
    {
      "inputs": [
        {
          "internalType": "uint256",
          "name": "",
          "type": "uint256"
        }
      ],
      "name": "allTokens",
      "outputs": [
        {
          "internalType": "address",
          "name": "tokenAddress",
          "type": "address"
        },
        {
          "internalType": "string",
          "name": "name",
          "type": "string"
        },
        {
          "internalType": "string",
          "name": "symbol",
          "type": "string"
        },
        {
          "internalType": "string",
          "name": "description",
          "type": "string"
        },
        {
          "internalType": "enum TokenFactory.CurveType",
          "name": "curveType",
          "type": "uint8"
        },
        {
          "internalType": "address",
          "name": "curveAddress",
          "type": "address"
        },
        {
          "internalType": "address",
          "name": "paymentToken",
          "type": "address"
        },
        {
          "internalType": "uint256",
          "name": "createdAt",
          "type": "uint256"
        },
        {
          "internalType": "address",
          "name": "creator",
          "type": "address"
        }
      ],
      "stateMutability": "view",
      "type": "function"
    },
    {
      "inputs": [
        {
          "components": [
            {
              "internalType": "address",
              "name": "tokenAddress",
              "type": "address"
            },
            {
              "internalType": "string",
              "name": "name",
              "type": "string"
            },
            {
              "internalType": "string",
              "name": "symbol",
              "type": "string"
            },
            {
              "internalType": "string",
              "name": "description",
              "type": "string"
            },
            {
              "internalType": "enum TokenFactory.CurveType",
              "name": "curveType",
              "type": "uint8"
            },
            {
              "internalType": "address",
              "name": "curveAddress",
              "type": "address"
            },
            {
              "internalType": "address",
              "name": "paymentToken",
              "type": "address"
            },
            {
              "internalType": "uint256",
              "name": "createdAt",
              "type": "uint256"
            },
            {
              "internalType": "address",
              "name": "creator",
              "type": "address"
            }
          ],
          "internalType": "struct TokenFactory.BasicTokenInfo",
          "name": "basicInfo",
          "type": "tuple"
        },
        {
          "components": [
            {
              "internalType": "string",
              "name": "twitchUsername",
              "type": "string"
            },
            {
              "internalType": "string[]",
              "name": "socialLinks",
              "type": "string[]"
            },
            {
              "internalType": "string",
              "name": "profileImageUrl",
              "type": "string"
            },
            {
              "internalType": "string",
              "name": "category",
              "type": "string"
            }
          ],
          "internalType": "struct TokenFactory.CreatorInfo",
          "name": "creatorInfo",
          "type": "tuple"
        },
        {
          "internalType": "uint256",
          "name": "param1",
          "type": "uint256"
        },
        {
          "internalType": "uint256",
          "name": "param2",
          "type": "uint256"
        }
      ],
      "name": "createToken",
      "outputs": [
        {
          "internalType": "address",
          "name": "",
          "type": "address"
        }
      ],
      "stateMutability": "nonpayable",
      "type": "function"
    },
    {
      "inputs": [
        {
          "internalType": "address",
          "name": "",
          "type": "address"
        }
      ],
      "name": "creatorProfiles",
      "outputs": [
        {
          "internalType": "string",
          "name": "twitchUsername",
          "type": "string"
        },
        {
          "internalType": "string",
          "name": "profileImageUrl",
          "type": "string"
        },
        {
          "internalType": "string",
          "name": "category",
          "type": "string"
        }
      ],
      "stateMutability": "view",
      "type": "function"
    },
    {
      "inputs": [
        {
          "internalType": "address",
          "name": "",
          "type": "address"
        },
        {
          "internalType": "uint256",
          "name": "",
          "type": "uint256"
        }
      ],
      "name": "creatorTokens",
      "outputs": [
        {
          "internalType": "address",
          "name": "tokenAddress",
          "type": "address"
        },
        {
          "internalType": "string",
          "name": "name",
          "type": "string"
        },
        {
          "internalType": "string",
          "name": "symbol",
          "type": "string"
        },
        {
          "internalType": "string",
          "name": "description",
          "type": "string"
        },
        {
          "internalType": "enum TokenFactory.CurveType",
          "name": "curveType",
          "type": "uint8"
        },
        {
          "internalType": "address",
          "name": "curveAddress",
          "type": "address"
        },
        {
          "internalType": "address",
          "name": "paymentToken",
          "type": "address"
        },
        {
          "internalType": "uint256",
          "name": "createdAt",
          "type": "uint256"
        },
        {
          "internalType": "address",
          "name": "creator",
          "type": "address"
        }
      ],
      "stateMutability": "view",
      "type": "function"
    },
    {
      "inputs": [],
      "name": "getAllTokens",
      "outputs": [
        {
          "components": [
            {
              "internalType": "address",
              "name": "tokenAddress",
              "type": "address"
            },
            {
              "internalType": "string",
              "name": "name",
              "type": "string"
            },
            {
              "internalType": "string",
              "name": "symbol",
              "type": "string"
            },
            {
              "internalType": "string",
              "name": "description",
              "type": "string"
            },
            {
              "internalType": "enum TokenFactory.CurveType",
              "name": "curveType",
              "type": "uint8"
            },
            {
              "internalType": "address",
              "name": "curveAddress",
              "type": "address"
            },
            {
              "internalType": "address",
              "name": "paymentToken",
              "type": "address"
            },
            {
              "internalType": "uint256",
              "name": "createdAt",
              "type": "uint256"
            },
            {
              "internalType": "address",
              "name": "creator",
              "type": "address"
            }
          ],
          "internalType": "struct TokenFactory.BasicTokenInfo[]",
          "name": "",
          "type": "tuple[]"
        }
      ],
      "stateMutability": "view",
      "type": "function"
    },
    {
      "inputs": [
        {
          "internalType": "address",
          "name": "creator",
          "type": "address"
        }
      ],
      "name": "getCreatorTokenCount",
      "outputs": [
        {
          "internalType": "uint256",
          "name": "",
          "type": "uint256"
        }
      ],
      "stateMutability": "view",
      "type": "function"
    },
    {
      "inputs": [],
      "name": "getTokenCount",
      "outputs": [
        {
          "internalType": "uint256",
          "name": "",
          "type": "uint256"
        }
      ],
      "stateMutability": "view",
      "type": "function"
    },
    {
      "inputs": [
        {
          "internalType": "address",
          "name": "creator",
          "type": "address"
        }
      ],
      "name": "getTokensByCreator",
      "outputs": [
        {
          "components": [
            {
              "internalType": "address",
              "name": "tokenAddress",
              "type": "address"
            },
            {
              "internalType": "string",
              "name": "name",
              "type": "string"
            },
            {
              "internalType": "string",
              "name": "symbol",
              "type": "string"
            },
            {
              "internalType": "string",
              "name": "description",
              "type": "string"
            },
            {
              "internalType": "enum TokenFactory.CurveType",
              "name": "curveType",
              "type": "uint8"
            },
            {
              "internalType": "address",
              "name": "curveAddress",
              "type": "address"
            },
            {
              "internalType": "address",
              "name": "paymentToken",
              "type": "address"
            },
            {
              "internalType": "uint256",
              "name": "createdAt",
              "type": "uint256"
            },
            {
              "internalType": "address",
              "name": "creator",
              "type": "address"
            }
          ],
          "internalType": "struct TokenFactory.BasicTokenInfo[]",
          "name": "",
          "type": "tuple[]"
        }
      ],
      "stateMutability": "view",
      "type": "function"
    },
    {
      "inputs": [],
      "name": "owner",
      "outputs": [
        {
          "internalType": "address",
          "name": "",
          "type": "address"
        }
      ],
      "stateMutability": "view",
      "type": "function"
    },
    {
      "inputs": [],
      "name": "renounceOwnership",
      "outputs": [],
      "stateMutability": "nonpayable",
      "type": "function"
    },
    {
      "inputs": [
        {
          "internalType": "address",
          "name": "newOwner",
          "type": "address"
        }
      ],
      "name": "transferOwnership",
      "outputs": [],
      "stateMutability": "nonpayable",
      "type": "function"
    }
  ],
  "bytecode": "0x6080604052348015600f57600080fd5b503380603557604051631e4fbdf760e01b81526000600482015260240160405180910390fd5b603c816041565b506091565b600080546001600160a01b038381166001600160a01b0319831681178455604051919092169283917f8be0079c531659141344cd1fd0a4f28419497f9722a3daafe3b4186f6b6457e09190a35050565b614b16806100a06000396000f3fe608060405234801561001057600080fd5b50600436106100a95760003560e01c806395b04be21161007157806395b04be214610135578063bec0482614610157578063c6d8a04a1461016a578063d5c7127514610193578063db3fa4cc146101a6578063f2fde38b146101b957600080fd5b80632a5c792a146100ae578063634282af146100cc578063715018a6146100f457806378a89567146100fe5780638da5cb5b14610110575b600080fd5b6100b66101cc565b6040516100c391906112e3565b60405180910390f35b6100df6100da36600461140f565b61046b565b6040516100c399989796959493929190611428565b6100fc61067a565b005b6003545b6040519081526020016100c3565b6000546001600160a01b03165b6040516001600160a01b0390911681526020016100c3565b6101486101433660046114d5565b61068e565b6040516100c3939291906114f0565b61011d6101653660046117a6565b610848565b6101026101783660046114d5565b6001600160a01b031660009081526001602052604090205490565b6100b66101a13660046114d5565b610c87565b6100df6101b4366004611908565b610f3c565b6100fc6101c73660046114d5565b610f89565b60606003805480602002602001604051908101604052809291908181526020016000905b828210156104625760008481526020908190206040805161012081019091526008850290910180546001600160a01b03168252600181018054929391929184019161023a90611932565b80601f016020809104026020016040519081016040528092919081815260200182805461026690611932565b80156102b35780601f10610288576101008083540402835291602001916102b3565b820191906000526020600020905b81548152906001019060200180831161029657829003601f168201915b505050505081526020016002820180546102cc90611932565b80601f01602080910402602001604051908101604052809291908181526020018280546102f890611932565b80156103455780601f1061031a57610100808354040283529160200191610345565b820191906000526020600020905b81548152906001019060200180831161032857829003601f168201915b5050505050815260200160038201805461035e90611932565b80601f016020809104026020016040519081016040528092919081815260200182805461038a90611932565b80156103d75780601f106103ac576101008083540402835291602001916103d7565b820191906000526020600020905b8154815290600101906020018083116103ba57829003601f168201915b5050509183525050600482015460209091019060ff1660038111156103fe576103fe6112ab565b600381111561040f5761040f6112ab565b815260048201546001600160a01b036101009091048116602080840191909152600584015482166040840152600684015460608401526007909301541660809091015290825260019290920191016101f0565b50505050905090565b6003818154811061047b57600080fd5b6000918252602090912060089091020180546001820180546001600160a01b039092169350906104aa90611932565b80601f01602080910402602001604051908101604052809291908181526020018280546104d690611932565b80156105235780601f106104f857610100808354040283529160200191610523565b820191906000526020600020905b81548152906001019060200180831161050657829003601f168201915b50505050509080600201805461053890611932565b80601f016020809104026020016040519081016040528092919081815260200182805461056490611932565b80156105b15780601f10610586576101008083540402835291602001916105b1565b820191906000526020600020905b81548152906001019060200180831161059457829003601f168201915b5050505050908060030180546105c690611932565b80601f01602080910402602001604051908101604052809291908181526020018280546105f290611932565b801561063f5780601f106106145761010080835404028352916020019161063f565b820191906000526020600020905b81548152906001019060200180831161062257829003601f168201915b505050600484015460058501546006860154600790960154949560ff8316956001600160a01b03610100909404841695509183169350911689565b610682610fc7565b61068c6000610ff4565b565b6002602052600090815260409020805481906106a990611932565b80601f01602080910402602001604051908101604052809291908181526020018280546106d590611932565b80156107225780601f106106f757610100808354040283529160200191610722565b820191906000526020600020905b81548152906001019060200180831161070557829003601f168201915b50505050509080600201805461073790611932565b80601f016020809104026020016040519081016040528092919081815260200182805461076390611932565b80156107b05780601f10610785576101008083540402835291602001916107b0565b820191906000526020600020905b81548152906001019060200180831161079357829003601f168201915b5050505050908060030180546107c590611932565b80601f01602080910402602001604051908101604052809291908181526020018280546107f190611932565b801561083e5780601f106108135761010080835404028352916020019161083e565b820191906000526020600020905b81548152906001019060200180831161082157829003601f168201915b5050505050905083565b82515160009061089f5760405162461bcd60e51b815260206004820152601860248201527f54776974636820757365726e616d65207265717569726564000000000000000060448201526064015b60405180910390fd5b600584602001515111156108ed5760405162461bcd60e51b8152602060048201526015602482015274546f6f206d616e7920736f6369616c206c696e6b7360581b6044820152606401610896565b60006108fe86608001518585611044565b9050600086602001518760400151838960c001513360405161091f90611167565b61092d95949392919061196c565b604051809103906000f080158015610949573d6000803e3d6000fd5b506001600160a01b03818116895283811660a08a01524260e08a0152336101008a018190526000908152600160208181526040832080548084018255908452928190208c5160089094020180546001600160a01b03191693909416929092178355908a01519293508992908201906109c19082611a0b565b50604082015160028201906109d69082611a0b565b50606082015160038201906109eb9082611a0b565b50608082015160048201805460ff19166001836003811115610a0f57610a0f6112ab565b021790555060a08201516004820180546001600160a01b03928316610100908102610100600160a81b03199092169190911790915560c08401516005840180549184166001600160a01b031992831617905560e08501516006850155930151600790920180549282169284169290921790915560038054600181018255600091909152895160089091027fc2575a0e9e593c00f959f8c92f12db2869c3395a3b0502d05e2516446f71f85b810180549290931691909316178155602089015189927fc2575a0e9e593c00f959f8c92f12db2869c3395a3b0502d05e2516446f71f85c0190610afd9082611a0b565b5060408201516002820190610b129082611a0b565b5060608201516003820190610b279082611a0b565b50608082015160048201805460ff19166001836003811115610b4b57610b4b6112ab565b021790555060a0820151600482018054610100600160a81b0319166101006001600160a01b0393841681029190911790915560c08401516005840180546001600160a01b031990811692851692909217905560e0850151600685015593015160079092018054909316911617905533600090815260026020526040902086518791908190610bd99082611a0b565b506020828101518051610bf29260018501920190611174565b5060408201516002820190610c079082611a0b565b5060608201516003820190610c1c9082611a0b565b50905050336001600160a01b0316816001600160a01b03167f81b2c8a397ec791820fda8a174ba4714156d0b2a1fb31150d5621518c2a4666c89602001518a604001518b60800151604051610c7393929190611ac9565b60405180910390a39150505b949350505050565b6001600160a01b0381166000908152600160209081526040808320805482518185028101850190935280835260609492939192909184015b82821015610f315760008481526020908190206040805161012081019091526008850290910180546001600160a01b031682526001810180549293919291840191610d0990611932565b80601f0160208091040260200160405190810160405280929190818152602001828054610d3590611932565b8015610d825780601f10610d5757610100808354040283529160200191610d82565b820191906000526020600020905b815481529060010190602001808311610d6557829003601f168201915b50505050508152602001600282018054610d9b90611932565b80601f0160208091040260200160405190810160405280929190818152602001828054610dc790611932565b8015610e145780601f10610de957610100808354040283529160200191610e14565b820191906000526020600020905b815481529060010190602001808311610df757829003601f168201915b50505050508152602001600382018054610e2d90611932565b80601f0160208091040260200160405190810160405280929190818152602001828054610e5990611932565b8015610ea65780601f10610e7b57610100808354040283529160200191610ea6565b820191906000526020600020905b815481529060010190602001808311610e8957829003601f168201915b5050509183525050600482015460209091019060ff166003811115610ecd57610ecd6112ab565b6003811115610ede57610ede6112ab565b815260048201546001600160a01b03610100909104811660208084019190915260058401548216604084015260068401546060840152600790930154166080909101529082526001929092019101610cbf565b505050509050919050565b60016020528160005260406000208181548110610f5857600080fd5b6000918252602090912060089091020180546001820180546001600160a01b0390921694509192506104aa90611932565b610f91610fc7565b6001600160a01b038116610fbb57604051631e4fbdf760e01b815260006004820152602401610896565b610fc481610ff4565b50565b6000546001600160a01b0316331461068c5760405163118cdaa760e01b8152336004820152602401610896565b600080546001600160a01b038381166001600160a01b0319831681178455604051919092169283917f8be0079c531659141344cd1fd0a4f28419497f9722a3daafe3b4186f6b6457e09190a35050565b600080846003811115611059576110596112ab565b0361109a5760008360405161106d906111ca565b9081526020015b604051809103906000f080158015611090573d6000803e3d6000fd5b5091506111609050565b60018460038111156110ae576110ae6112ab565b036110c25760008360405161106d906111d7565b60028460038111156110d6576110d66112ab565b036110ea5760008360405161106d906111e4565b60038460038111156110fe576110fe6112ab565b036111235760008383604051611113906111f1565b9182526020820152604001611074565b60405162461bcd60e51b8152602060048201526012602482015271496e76616c6964206375727665207479706560701b6044820152606401610896565b9392505050565b61151780611aff83390190565b8280548282559060005260206000209081019282156111ba579160200282015b828111156111ba57825182906111aa9082611a0b565b5091602001919060010190611194565b506111c69291506111fe565b5090565b61062f8061301683390190565b6105588061364583390190565b6106de80613b9d83390190565b6108668061427b83390190565b808211156111c6576000611212828261121b565b506001016111fe565b50805461122790611932565b6000825580601f10611237575050565b601f016020900490600052602060002090810190610fc491905b808211156111c65760008155600101611251565b6000815180845260005b8181101561128b5760208185018101518683018201520161126f565b506000602082860101526020601f19601f83011685010191505092915050565b634e487b7160e01b600052602160045260246000fd5b600481106112df57634e487b7160e01b600052602160045260246000fd5b9052565b6000602082016020835280845180835260408501915060408160051b86010192506020860160005b8281101561140357868503603f19018452815180516001600160a01b0316865260208101516101206020880152611346610120880182611265565b90506040820151878203604089015261135f8282611265565b915050606082015187820360608901526113798282611265565b915050608082015161138e60808901826112c1565b5060a08201516113a960a08901826001600160a01b03169052565b5060c08201516113c460c08901826001600160a01b03169052565b5060e082015160e088015261010082015191506113ed6101008801836001600160a01b03169052565b955050602093840193919091019060010161130b565b50929695505050505050565b60006020828403121561142157600080fd5b5035919050565b6001600160a01b038a1681526101206020820181905260009061144d9083018b611265565b828103604084015261145f818b611265565b90508281036060840152611473818a611265565b91505061148360808301886112c1565b6001600160a01b0395861660a083015293851660c082015260e08101929092529092166101009092019190915295945050505050565b80356001600160a01b03811681146114d057600080fd5b919050565b6000602082840312156114e757600080fd5b611160826114b9565b6060815260006115036060830186611265565b82810360208401526115158186611265565b905082810360408401526115298185611265565b9695505050505050565b634e487b7160e01b600052604160045260246000fd5b604051608081016001600160401b038111828210171561156b5761156b611533565b60405290565b60405161012081016001600160401b038111828210171561156b5761156b611533565b604051601f8201601f191681016001600160401b03811182821017156115bc576115bc611533565b604052919050565b600082601f8301126115d557600080fd5b81356001600160401b038111156115ee576115ee611533565b611601601f8201601f1916602001611594565b81815284602083860101111561161657600080fd5b816020850160208301376000918101602001919091529392505050565b8035600481106114d057600080fd5b600082601f83011261165357600080fd5b81356001600160401b0381111561166c5761166c611533565b8060051b61167c60208201611594565b9182526020818501810192908101908684111561169857600080fd5b6020860192505b838310156115295782356001600160401b038111156116bd57600080fd5b6116cc886020838a01016115c4565b8352506020928301929091019061169f565b6000608082840312156116f057600080fd5b6116f8611549565b905081356001600160401b0381111561171057600080fd5b61171c848285016115c4565b82525060208201356001600160401b0381111561173857600080fd5b61174484828501611642565b60208301525060408201356001600160401b0381111561176357600080fd5b61176f848285016115c4565b60408301525060608201356001600160401b0381111561178e57600080fd5b61179a848285016115c4565b60608301525092915050565b600080600080608085870312156117bc57600080fd5b84356001600160401b038111156117d257600080fd5b850161012081880312156117e557600080fd5b6117ed611571565b6117f6826114b9565b815260208201356001600160401b0381111561181157600080fd5b61181d898285016115c4565b60208301525060408201356001600160401b0381111561183c57600080fd5b611848898285016115c4565b60408301525060608201356001600160401b0381111561186757600080fd5b611873898285016115c4565b60608301525061188560808301611633565b608082015261189660a083016114b9565b60a08201526118a760c083016114b9565b60c082015260e082810135908201526118c361010083016114b9565b61010082015294505060208501356001600160401b038111156118e557600080fd5b6118f1878288016116de565b949794965050505060408301359260600135919050565b6000806040838503121561191b57600080fd5b611924836114b9565b946020939093013593505050565b600181811c9082168061194657607f821691505b60208210810361196657634e487b7160e01b600052602260045260246000fd5b50919050565b60a08152600061197f60a0830188611265565b82810360208401526119918188611265565b6001600160a01b03968716604085015294861660608401525050921660809092019190915292915050565b601f821115611a0657806000526020600020601f840160051c810160208510156119e35750805b601f840160051c820191505b81811015611a0357600081556001016119ef565b50505b505050565b81516001600160401b03811115611a2457611a24611533565b611a3881611a328454611932565b846119bc565b6020601f821160018114611a6c5760008315611a545750848201515b600019600385901b1c1916600184901b178455611a03565b600084815260208120601f198516915b82811015611a9c5787850151825560209485019460019092019101611a7c565b5084821015611aba5786840151600019600387901b60f8161c191681555b50505050600190811b01905550565b606081526000611adc6060830186611265565b8281036020840152611aee8186611265565b915050610c7f60408301846112c156fe608060405234801561001057600080fd5b5060405161151738038061151783398101604081905261002f9161021a565b808585600361003e838261033e565b50600461004b828261033e565b5050506001600160a01b03811661007c57604051631e4fbdf760e01b81526000600482015260240160405180910390fd5b610085816100f3565b50600680546001600160a01b038086166001600160a01b03199092169190911790915560078054600160a01b92851615830260ff60a01b1990911617908190550460ff166100e957600780546001600160a01b0319166001600160a01b0384161790555b50505050506103fc565b600580546001600160a01b038381166001600160a01b0319831681179093556040519116919082907f8be0079c531659141344cd1fd0a4f28419497f9722a3daafe3b4186f6b6457e090600090a35050565b634e487b7160e01b600052604160045260246000fd5b600082601f83011261016c57600080fd5b81516001600160401b0381111561018557610185610145565b604051601f8201601f19908116603f011681016001600160401b03811182821017156101b3576101b3610145565b6040528181528382016020018510156101cb57600080fd5b60005b828110156101ea576020818601810151838301820152016101ce565b506000918101602001919091529392505050565b80516001600160a01b038116811461021557600080fd5b919050565b600080600080600060a0868803121561023257600080fd5b85516001600160401b0381111561024857600080fd5b6102548882890161015b565b602088015190965090506001600160401b0381111561027257600080fd5b61027e8882890161015b565b94505061028d604087016101fe565b925061029b606087016101fe565b91506102a9608087016101fe565b90509295509295909350565b600181811c908216806102c957607f821691505b6020821081036102e957634e487b7160e01b600052602260045260246000fd5b50919050565b601f82111561033957806000526020600020601f840160051c810160208510156103165750805b601f840160051c820191505b818110156103365760008155600101610322565b50505b505050565b81516001600160401b0381111561035757610357610145565b61036b8161036584546102b5565b846102ef565b6020601f82116001811461039f57600083156103875750848201515b600019600385901b1c1916600184901b178455610336565b600084815260208120601f198516915b828110156103cf57878501518255602094850194600190920191016103af565b50848210156103ed5786840151600019600387901b60f8161c191681555b50505050600190811b01905550565b61110c8061040b6000396000f3fe60806040526004361061010d5760003560e01c806395d89b4111610095578063dcd57c9711610064578063dcd57c97146102da578063dd62ed3e146102fb578063e4849b3214610341578063eff1d50e14610361578063f2fde38b1461038157600080fd5b806395d89b4114610272578063a9059cbb14610287578063bd61f0a6146102a7578063d96a094a146102c757600080fd5b80633013ce29116100dc5780633013ce29146101b3578063313ce567146101eb57806370a0823114610207578063715018a61461023d5780638da5cb5b1461025457600080fd5b806306fdde0314610119578063095ea7b31461014457806318160ddd1461017457806323b872dd1461019357600080fd5b3661011457005b600080fd5b34801561012557600080fd5b5061012e6103a1565b60405161013b9190610ee6565b60405180910390f35b34801561015057600080fd5b5061016461015f366004610f50565b610433565b604051901515815260200161013b565b34801561018057600080fd5b506002545b60405190815260200161013b565b34801561019f57600080fd5b506101646101ae366004610f7a565b61044d565b3480156101bf57600080fd5b506007546101d3906001600160a01b031681565b6040516001600160a01b03909116815260200161013b565b3480156101f757600080fd5b506040516012815260200161013b565b34801561021357600080fd5b50610185610222366004610fb7565b6001600160a01b031660009081526020819052604090205490565b34801561024957600080fd5b50610252610471565b005b34801561026057600080fd5b506005546001600160a01b03166101d3565b34801561027e57600080fd5b5061012e610485565b34801561029357600080fd5b506101646102a2366004610f50565b610494565b3480156102b357600080fd5b506102526102c2366004610f50565b6104a2565b6102526102d5366004610fd9565b6105ba565b3480156102e657600080fd5b5060075461016490600160a01b900460ff1681565b34801561030757600080fd5b50610185610316366004610ff2565b6001600160a01b03918216600090815260016020908152604080832093909416825291909152205490565b34801561034d57600080fd5b5061025261035c366004610fd9565b61084a565b34801561036d57600080fd5b506006546101d3906001600160a01b031681565b34801561038d57600080fd5b5061025261039c366004610fb7565b610ad0565b6060600380546103b090611025565b80601f01602080910402602001604051908101604052809291908181526020018280546103dc90611025565b80156104295780601f106103fe57610100808354040283529160200191610429565b820191906000526020600020905b81548152906001019060200180831161040c57829003601f168201915b5050505050905090565b600033610441818585610b0e565b60019150505b92915050565b60003361045b858285610b1b565b610466858585610b99565b506001949350505050565b610479610bf8565b6104836000610c25565b565b6060600480546103b090611025565b600033610441818585610b99565b6104aa610bf8565b600754600160a01b900460ff161580156104d257506007546001600160a01b03838116911614155b6105235760405162461bcd60e51b815260206004820152601d60248201527f43616e6e6f74207769746864726177207061796d656e7420746f6b656e00000060448201526064015b60405180910390fd5b816001600160a01b031663a9059cbb6105446005546001600160a01b031690565b6040516001600160e01b031960e084901b1681526001600160a01b039091166004820152602481018490526044016020604051808303816000875af1158015610591573d6000803e3d6000fd5b505050506040513d601f19601f820116820180604052508101906105b5919061105f565b505050565b6006546000906001600160a01b031663ace4e8246105d760025490565b846040518363ffffffff1660e01b81526004016105fe929190918252602082015260400190565b602060405180830381865afa15801561061b573d6000803e3d6000fd5b505050506040513d601f19601f8201168201806040525081019061063f9190611081565b600754909150600160a01b900460ff1615610739578034101561069b5760405162461bcd60e51b8152602060048201526014602482015273125b9cdd59999a58da595b9d081c185e5b595b9d60621b604482015260640161051a565b80341115610734576000336106b083346110b0565b604051600081818185875af1925050503d80600081146106ec576040519150601f19603f3d011682016040523d82523d6000602084013e6106f1565b606091505b50509050806107325760405162461bcd60e51b815260206004820152600d60248201526c1499599d5b990819985a5b1959609a1b604482015260640161051a565b505b610800565b6007546040516323b872dd60e01b8152336004820152306024820152604481018390526001600160a01b03909116906323b872dd906064016020604051808303816000875af1158015610790573d6000803e3d6000fd5b505050506040513d601f19601f820116820180604052508101906107b4919061105f565b6108005760405162461bcd60e51b815260206004820152601d60248201527f5061796d656e7420746f6b656e207472616e73666572206661696c6564000000604482015260640161051a565b61080a3383610c77565b604080518381526020810183905233917f1cbc5ab135991bd2b6a4b034a04aa2aa086dac1371cb9b16b8b5e2ed6b036bed91015b60405180910390a25050565b336000908152602081905260409020548111156108a05760405162461bcd60e51b8152602060048201526014602482015273496e73756666696369656e742062616c616e636560601b604482015260640161051a565b6006546000906001600160a01b031663071f85216108bd60025490565b846040518363ffffffff1660e01b81526004016108e4929190918252602082015260400190565b602060405180830381865afa158015610901573d6000803e3d6000fd5b505050506040513d601f19601f820116820180604052508101906109259190611081565b90506109313383610cb1565b600754600160a01b900460ff16156109d757604051600090339083908381818185875af1925050503d8060008114610985576040519150601f19603f3d011682016040523d82523d6000602084013e61098a565b606091505b50509050806109d15760405162461bcd60e51b8152602060048201526013602482015272115512081d1c985b9cd9995c8819985a5b1959606a1b604482015260640161051a565b50610a98565b60075460405163a9059cbb60e01b8152336004820152602481018390526001600160a01b039091169063a9059cbb906044016020604051808303816000875af1158015610a28573d6000803e3d6000fd5b505050506040513d601f19601f82011682018060405250810190610a4c919061105f565b610a985760405162461bcd60e51b815260206004820152601d60248201527f5061796d656e7420746f6b656e207472616e73666572206661696c6564000000604482015260640161051a565b604080518381526020810183905233917fed7a144fad14804d5c249145e3e0e2b63a9eb455b76aee5bc92d711e9bba3e4a910161083e565b610ad8610bf8565b6001600160a01b038116610b0257604051631e4fbdf760e01b81526000600482015260240161051a565b610b0b81610c25565b50565b6105b58383836001610ce7565b6001600160a01b038381166000908152600160209081526040808320938616835292905220546000198114610b935781811015610b8457604051637dc7a0d960e11b81526001600160a01b0384166004820152602481018290526044810183905260640161051a565b610b9384848484036000610ce7565b50505050565b6001600160a01b038316610bc357604051634b637e8f60e11b81526000600482015260240161051a565b6001600160a01b038216610bed5760405163ec442f0560e01b81526000600482015260240161051a565b6105b5838383610dbc565b6005546001600160a01b031633146104835760405163118cdaa760e01b815233600482015260240161051a565b600580546001600160a01b038381166001600160a01b0319831681179093556040519116919082907f8be0079c531659141344cd1fd0a4f28419497f9722a3daafe3b4186f6b6457e090600090a35050565b6001600160a01b038216610ca15760405163ec442f0560e01b81526000600482015260240161051a565b610cad60008383610dbc565b5050565b6001600160a01b038216610cdb57604051634b637e8f60e11b81526000600482015260240161051a565b610cad82600083610dbc565b6001600160a01b038416610d115760405163e602df0560e01b81526000600482015260240161051a565b6001600160a01b038316610d3b57604051634a1406b160e11b81526000600482015260240161051a565b6001600160a01b0380851660009081526001602090815260408083209387168352929052208290558015610b9357826001600160a01b0316846001600160a01b03167f8c5be1e5ebec7d5bd14f71427d1e84f3dd0314c0f7b2291e5b200ac8c7c3b92584604051610dae91815260200190565b60405180910390a350505050565b6001600160a01b038316610de7578060026000828254610ddc91906110c3565b90915550610e599050565b6001600160a01b03831660009081526020819052604090205481811015610e3a5760405163391434e360e21b81526001600160a01b0385166004820152602481018290526044810183905260640161051a565b6001600160a01b03841660009081526020819052604090209082900390555b6001600160a01b038216610e7557600280548290039055610e94565b6001600160a01b03821660009081526020819052604090208054820190555b816001600160a01b0316836001600160a01b03167fddf252ad1be2c89b69c2b068fc378daa952ba7f163c4a11628f55a4df523b3ef83604051610ed991815260200190565b60405180910390a3505050565b602081526000825180602084015260005b81811015610f145760208186018101516040868401015201610ef7565b506000604082850101526040601f19601f83011684010191505092915050565b80356001600160a01b0381168114610f4b57600080fd5b919050565b60008060408385031215610f6357600080fd5b610f6c83610f34565b946020939093013593505050565b600080600060608486031215610f8f57600080fd5b610f9884610f34565b9250610fa660208501610f34565b929592945050506040919091013590565b600060208284031215610fc957600080fd5b610fd282610f34565b9392505050565b600060208284031215610feb57600080fd5b5035919050565b6000806040838503121561100557600080fd5b61100e83610f34565b915061101c60208401610f34565b90509250929050565b600181811c9082168061103957607f821691505b60208210810361105957634e487b7160e01b600052602260045260246000fd5b50919050565b60006020828403121561107157600080fd5b81518015158114610fd257600080fd5b60006020828403121561109357600080fd5b5051919050565b634e487b7160e01b600052601160045260246000fd5b818103818111156104475761044761109a565b808201808211156104475761044761109a56fea264697066735822122035c557317956196cd15afae3d1ba89bcc1e43e72492e5836f2ede67ab04e2eee64736f6c634300081b00336080604052348015600f57600080fd5b5060405161062f38038061062f833981016040819052602c91604d565b60356002826065565b600055504260035567016345785d8a00006002556086565b600060208284031215605e57600080fd5b5051919050565b600082608157634e487b7160e01b600052601260045260246000fd5b500490565b61059a806100956000396000f3fe608060405234801561001057600080fd5b50600436106100cf5760003560e01c806383caf2751161008c578063ace4e82411610066578063ace4e8241461015f578063c55d0f5614610102578063c8f33c9114610172578063f86325ed1461017b57600080fd5b806383caf275146101395780639670c0bc14610142578063aaf5eb681461015057600080fd5b8063053f14da146100d4578063071f8521146100ef5780630fda366d1461010257806341244829146101155780635f81a57c1461012857806379c84f9c14610131575b600080fd5b6100dd60025481565b60405190815260200160405180910390f35b6100dd6100fd366004610476565b61018a565b6100dd610110366004610498565b610286565b6100dd6101233660046104b1565b6102bb565b6100dd60015481565b6000546100dd565b6100dd60005481565b670de0b6b3a76400006100dd565b6100dd670de0b6b3a764000081565b6100dd61016d366004610476565b61042b565b6100dd60035481565b6100dd67016345785d8a000081565b60008183116101d35760405162461bcd60e51b815260206004820152601060248201526f416d6f756e7420746f6f206c6172676560801b60448201526064015b60405180910390fd5b60006002670de0b6b3a764000060005485876101ef9190610505565b6101f99190610518565b610203919061052f565b67016345785d8a0000670de0b6b3a7640000600054886102239190610518565b61022d919061052f565b61023f9067016345785d8a0000610551565b6102499190610551565b6102539190610551565b61025d919061052f565b9050670de0b6b3a76400006102728285610518565b61027c919061052f565b9150505b92915050565b6000670de0b6b3a76400006000548361029f9190610518565b6102a9919061052f565b6102809067016345785d8a0000610551565b600080670de0b6b3a7640000600054866102d59190610518565b6102df919061052f565b6102f19067016345785d8a0000610551565b9050821561037c5760008054670de0b6b3a7640000906103118789610551565b61031b9190610518565b610325919061052f565b6103379067016345785d8a0000610551565b905081811161034b57600092505050610424565b81670de0b6b3a764000061035f8284610505565b6103699190610518565b610373919061052f565b92505050610424565b8484106103be5760405162461bcd60e51b815260206004820152601060248201526f416d6f756e7420746f6f206c6172676560801b60448201526064016101ca565b60008054670de0b6b3a7640000906103d68789610505565b6103e09190610518565b6103ea919061052f565b6103fc9067016345785d8a0000610551565b905081811061041057600092505050610424565b81670de0b6b3a764000061035f8383610505565b9392505050565b600080670de0b6b3a7640000600054856104459190610518565b61044f919061052f565b6104619067016345785d8a0000610551565b905080610272670de0b6b3a764000085610518565b6000806040838503121561048957600080fd5b50508035926020909101359150565b6000602082840312156104aa57600080fd5b5035919050565b6000806000606084860312156104c657600080fd5b8335925060208401359150604084013580151581146104e457600080fd5b809150509250925092565b634e487b7160e01b600052601160045260246000fd5b81810381811115610280576102806104ef565b8082028115828204841417610280576102806104ef565b60008261054c57634e487b7160e01b600052601260045260246000fd5b500490565b80820180821115610280576102806104ef56fea2646970667358221220afa924b90411665c4033d68e798e03cc871fc96f5511ce2d183945f7f4fb205764736f6c634300081b00336080604052348015600f57600080fd5b50604051610558380380610558833981016040819052602c91604e565b6036816103e86066565b600055504260035567016345785d8a0000600255608c565b600060208284031215605f57600080fd5b5051919050565b80820180821115608657634e487b7160e01b600052601160045260246000fd5b92915050565b6104bd8061009b6000396000f3fe608060405234801561001057600080fd5b50600436106100cf5760003560e01c806379c84f9c1161008c578063ace4e82411610066578063ace4e8241461015f578063c55d0f5614610102578063c8f33c9114610172578063f86325ed1461017b57600080fd5b806379c84f9c1461013a5780639670c0bc14610142578063aaf5eb681461015057600080fd5b8063053f14da146100d4578063071f8521146100ef5780630fda366d1461010257806341244829146101155780635001f3b5146101285780635f81a57c14610131575b600080fd5b6100dd60025481565b60405190815260200160405180910390f35b6100dd6100fd366004610399565b61018a565b6100dd6101103660046103bb565b61022e565b6100dd6101233660046103d4565b610239565b6100dd60005481565b6100dd60015481565b6000546100dd565b670de0b6b3a76400006100dd565b6100dd670de0b6b3a764000081565b6100dd61016d366004610399565b6102e5565b6100dd60035481565b6100dd67016345785d8a000081565b60008183116101d25760405162461bcd60e51b815260206004820152601060248201526f416d6f756e7420746f6f206c6172676560801b604482015260640160405180910390fd5b600060026101e86101e38587610428565b610306565b6101f186610306565b6101fb919061043b565b610205919061044e565b9050670de0b6b3a764000061021a8285610470565b610224919061044e565b9150505b92915050565b600061022882610306565b60008061024585610306565b90506000836102605761025b6101e38688610428565b61026d565b61026d6101e3868861043b565b905083156102b857818111610287576000925050506102de565b81670de0b6b3a764000061029b8284610428565b6102a59190610470565b6102af919061044e565b925050506102de565b8181106102ca576000925050506102de565b81670de0b6b3a764000061029b8383610428565b9392505050565b6000806102f184610306565b90508061021a670de0b6b3a764000085610470565b60008160000361031f575067016345785d8a0000919050565b6000610335670de0b6b3a76400006103e8610470565b670de0b6b3a76400006000548561034c9190610470565b6103569190610470565b610360919061044e565b9050670de0b6b3a764000061037d8267016345785d8a0000610470565b610387919061044e565b6102de9067016345785d8a000061043b565b600080604083850312156103ac57600080fd5b50508035926020909101359150565b6000602082840312156103cd57600080fd5b5035919050565b6000806000606084860312156103e957600080fd5b83359250602084013591506040840135801515811461040757600080fd5b809150509250925092565b634e487b7160e01b600052601160045260246000fd5b8181038181111561022857610228610412565b8082018082111561022857610228610412565b60008261046b57634e487b7160e01b600052601260045260246000fd5b500490565b80820281158282048414176102285761022861041256fea2646970667358221220b4b3cb494f8f90a8e1482406bfb17ceffa4251bc763e8e793c9f9a50aa17851d64736f6c634300081b00336080604052348015600f57600080fd5b506040516106de3803806106de833981016040819052602c916043565b6000554260035567016345785d8a0000600255605b565b600060208284031215605457600080fd5b5051919050565b6106748061006a6000396000f3fe608060405234801561001057600080fd5b50600436106100cf5760003560e01c806379c84f9c1161008c578063ace4e82411610066578063ace4e8241461015f578063c55d0f5614610102578063c8f33c9114610172578063f86325ed1461017b57600080fd5b806379c84f9c1461013a5780639670c0bc14610142578063aaf5eb681461015057600080fd5b8063053f14da146100d4578063071f8521146100ef5780630fda366d146101025780631b3ed72214610115578063412448291461011e5780635f81a57c14610131575b600080fd5b6100dd60025481565b60405190815260200160405180910390f35b6100dd6100fd366004610518565b61018a565b6100dd61011036600461053a565b61022f565b6100dd60005481565b6100dd61012c366004610553565b61023a565b6100dd60015481565b6000546100dd565b670de0b6b3a76400006100dd565b6100dd670de0b6b3a764000081565b6100dd61016d366004610518565b6102e6565b6100dd60035481565b6100dd67016345785d8a000081565b60008183116101d35760405162461bcd60e51b815260206004820152601060248201526f416d6f756e7420746f6f206c6172676560801b60448201526064015b60405180910390fd5b600060026101e96101e485876105a7565b61033c565b6101f28661033c565b6101fc91906105ba565b61020691906105cd565b9050670de0b6b3a764000061021b82856105ef565b61022591906105cd565b9150505b92915050565b60006102298261033c565b6000806102468561033c565b90506000836102615761025c6101e486886105a7565b61026e565b61026e6101e486886105ba565b905083156102b957818111610288576000925050506102df565b81670de0b6b3a764000061029c82846105a7565b6102a691906105ef565b6102b091906105cd565b925050506102df565b8181106102cb576000925050506102df565b81670de0b6b3a764000061029c83836105a7565b9392505050565b60008260000361031c5767016345785d8a000061030b670de0b6b3a7640000846105ef565b61031591906105cd565b9050610229565b60006103278461033c565b90508061021b670de0b6b3a7640000856105ef565b600081600003610355575067016345785d8a0000919050565b60008054670de0b6b3a76400009061037561037083876105ba565b6103c2565b61037f91906105ef565b61038991906105cd565b9050670de0b6b3a76400006103a68267016345785d8a00006105ef565b6103b091906105cd565b6102df9067016345785d8a00006105ba565b60008082116104035760405162461bcd60e51b815260206004820152600d60248201526c125b9d985b1a59081a5b9c1d5d609a1b60448201526064016101ca565b60005b610419670de0b6b3a764000060026105ef565b831061046957610431670de0b6b3a7640000826105ba565b9050610446670de0b6b3a764000060026105ef565b610458670de0b6b3a7640000856105ef565b61046291906105cd565b9250610406565b82670de0b6b3a764000061047d81836105a7565b61048791906105ef565b61049191906105cd565b92508261049e81836105ba565b915060025b600a8160ff161161050f576104c3670de0b6b3a764000060ff83166105ef565b6104ce600183610606565b60ff166104db87856105ef565b6104e591906105ef565b6104ef91906105cd565b91506104fb82846105ba565b9250806105078161061f565b9150506104a3565b50909392505050565b6000806040838503121561052b57600080fd5b50508035926020909101359150565b60006020828403121561054c57600080fd5b5035919050565b60008060006060848603121561056857600080fd5b83359250602084013591506040840135801515811461058657600080fd5b809150509250925092565b634e487b7160e01b600052601160045260246000fd5b8181038181111561022957610229610591565b8082018082111561022957610229610591565b6000826105ea57634e487b7160e01b600052601260045260246000fd5b500490565b808202811582820484141761022957610229610591565b60ff828116828216039081111561022957610229610591565b600060ff821660ff810361063557610635610591565b6001019291505056fea2646970667358221220d155e14fe7cd962ab56772ad50a72d2d7f3bc30455c003ae878f5bc6ebe1026f64736f6c634300081b00336080604052348015600f57600080fd5b50604051610866380380610866833981016040819052602c916049565b6000919091556001554260035567016345785d8a0000600255606c565b60008060408385031215605b57600080fd5b505080516020909101519092909150565b6107eb8061007b6000396000f3fe608060405234801561001057600080fd5b50600436106100f55760003560e01c806387563ec111610097578063c55d0f5611610066578063c55d0f5614610128578063c8f33c91146101a0578063ceacdca8146101a9578063f86325ed146101b257600080fd5b806387563ec1146101675780639670c0bc14610170578063aaf5eb681461017e578063ace4e8241461018d57600080fd5b806341244829116100d3578063412448291461013b5780635a7e4a6d1461014e5780635f81a57c1461015657806379c84f9c1461015f57600080fd5b8063053f14da146100fa578063071f8521146101155780630fda366d14610128575b600080fd5b61010360025481565b60405190815260200160405180910390f35b610103610123366004610656565b6101c1565b610103610136366004610678565b610266565b610103610149366004610691565b610271565b61010361032e565b61010360045481565b600054610103565b61010360005481565b670de0b6b3a7640000610103565b610103670de0b6b3a764000081565b61010361019b366004610656565b610344565b61010360035481565b61010360015481565b61010367016345785d8a000081565b600081831161020a5760405162461bcd60e51b815260206004820152601060248201526f416d6f756e7420746f6f206c6172676560801b60448201526064015b60405180910390fd5b6000600261022061021b85876106e5565b61039a565b6102298661039a565b61023391906106f8565b61023d9190610721565b9050670de0b6b3a76400006102528285610735565b61025c9190610721565b9150505b92915050565b60006102608261039a565b60008061027d8561039a565b9050600083156102d95761029461021b86886106f8565b90508181116102a857600092505050610327565b81670de0b6b3a76400006102bc82846106e5565b6102c69190610735565b6102d09190610721565b92505050610327565b8486116102f257670de0b6b3a764000092505050610327565b6102ff61021b86886106e5565b905081811061031357600092505050610327565b81670de0b6b3a76400006102bc83836106e5565b9392505050565b61034167016345785d8a00006005610735565b81565b60008260000361037a5767016345785d8a0000610369670de0b6b3a764000084610735565b6103739190610721565b9050610260565b60006103858461039a565b905080610252670de0b6b3a764000085610735565b6000816000036103b3575067016345785d8a0000919050565b60006001548311156103fd576103d2600a670de0b6b3a7640000610721565b6000546001546103e290866106e5565b6103ec9190610735565b6103f6919061074c565b9050610441565b610410600a670de0b6b3a7640000610721565b6000548460015461042191906106e5565b61042b9190610735565b6104349061077a565b61043e919061074c565b90505b600881131561044e575060085b60071981121561045d57506007195b60008082126104a957600061047183610540565b905061048581670de0b6b3a76400006106f8565b610497670de0b6b3a764000083610735565b6104a19190610721565b9150506104f0565b60006104bc6104b78461077a565b610540565b90506104d081670de0b6b3a76400006106f8565b6104e2670de0b6b3a764000080610735565b6104ec9190610721565b9150505b6000670de0b6b3a76400008261050f67016345785d8a00006005610735565b6105199190610735565b6105239190610721565b90506105378167016345785d8a00006106f8565b95945050505050565b60006032821315801561055557506031198212155b6105905760405162461bcd60e51b815260206004820152600c60248201526b457870206f766572666c6f7760a01b6044820152606401610201565b816000036105a75750670de0b6b3a7640000919050565b60008212156105e5576105b98261077a565b915060006105c6836105ea565b9050806105db670de0b6b3a764000080610735565b6103279190610721565b610260825b6000670de0b6b3a76400008060015b60088160ff161161064d57610619670de0b6b3a764000060ff8316610735565b6106238684610735565b61062d9190610721565b915061063982846106f8565b92508061064581610796565b9150506105f9565b50909392505050565b6000806040838503121561066957600080fd5b50508035926020909101359150565b60006020828403121561068a57600080fd5b5035919050565b6000806000606084860312156106a657600080fd5b8335925060208401359150604084013580151581146106c457600080fd5b809150509250925092565b634e487b7160e01b600052601160045260246000fd5b81810381811115610260576102606106cf565b80820180821115610260576102606106cf565b634e487b7160e01b600052601260045260246000fd5b6000826107305761073061070b565b500490565b8082028115828204841417610260576102606106cf565b60008261075b5761075b61070b565b600160ff1b821460001984141615610775576107756106cf565b500590565b6000600160ff1b820161078f5761078f6106cf565b5060000390565b600060ff821660ff81036107ac576107ac6106cf565b6001019291505056fea2646970667358221220b07442e011c70a036cf5f7e10bc6c1cf2eeb39e689ecf6a5b72aede8566e5d4b64736f6c634300081b0033a26469706673582212203ca21d8783132232331c3c558f508828c43b7307dded07ffaa1ed9c7c97c48aa64736f6c634300081b0033",
  "linkReferences": {},
  "deployedLinkReferences": {}
}