{
  "_format": "hh-sol-artifact-1",
  "contractName": "TokenFactory",
  "sourceName": "contracts/core/TokenFactory.sol",
  "abi": [
    {
      "inputs": [],
      "stateMutability": "nonpayable",
      "type": "constructor"
    },
    {
      "inputs": [
        {
          "internalType": "address",
          "name": "owner",
          "type": "address"
        }
      ],
      "name": "OwnableInvalidOwner",
      "type": "error"
    },
    {
      "inputs": [
        {
          "internalType": "address",
          "name": "account",
          "type": "address"
        }
      ],
      "name": "OwnableUnauthorizedAccount",
      "type": "error"
    },
    {
      "anonymous": false,
      "inputs": [
        {
          "indexed": true,
          "internalType": "address",
          "name": "previousOwner",
          "type": "address"
        },
        {
          "indexed": true,
          "internalType": "address",
          "name": "newOwner",
          "type": "address"
        }
      ],
      "name": "OwnershipTransferred",
      "type": "event"
    },
    {
      "anonymous": false,
      "inputs": [
        {
          "indexed": true,
          "internalType": "address",
          "name": "tokenAddress",
          "type": "address"
        },
        {
          "indexed": true,
          "internalType": "address",
          "name": "creator",
          "type": "address"
        },
        {
          "indexed": false,
          "internalType": "string",
          "name": "name",
          "type": "string"
        },
        {
          "indexed": false,
          "internalType": "string",
          "name": "symbol",
          "type": "string"
        },
        {
          "indexed": false,
          "internalType": "enum TokenFactory.CurveType",
          "name": "curveType",
          "type": "uint8"
        }
      ],
      "name": "TokenCreated",
      "type": "event"
    },
    {
      "inputs": [
        {
          "internalType": "uint256",
          "name": "",
          "type": "uint256"
        }
      ],
      "name": "allTokens",
      "outputs": [
        {
          "internalType": "address",
          "name": "tokenAddress",
          "type": "address"
        },
        {
          "internalType": "string",
          "name": "name",
          "type": "string"
        },
        {
          "internalType": "string",
          "name": "symbol",
          "type": "string"
        },
        {
          "internalType": "string",
          "name": "description",
          "type": "string"
        },
        {
          "internalType": "enum TokenFactory.CurveType",
          "name": "curveType",
          "type": "uint8"
        },
        {
          "internalType": "address",
          "name": "curveAddress",
          "type": "address"
        },
        {
          "internalType": "address",
          "name": "paymentToken",
          "type": "address"
        },
        {
          "internalType": "uint256",
          "name": "createdAt",
          "type": "uint256"
        },
        {
          "internalType": "address",
          "name": "creator",
          "type": "address"
        }
      ],
      "stateMutability": "view",
      "type": "function"
    },
    {
      "inputs": [
        {
          "components": [
            {
              "internalType": "address",
              "name": "tokenAddress",
              "type": "address"
            },
            {
              "internalType": "string",
              "name": "name",
              "type": "string"
            },
            {
              "internalType": "string",
              "name": "symbol",
              "type": "string"
            },
            {
              "internalType": "string",
              "name": "description",
              "type": "string"
            },
            {
              "internalType": "enum TokenFactory.CurveType",
              "name": "curveType",
              "type": "uint8"
            },
            {
              "internalType": "address",
              "name": "curveAddress",
              "type": "address"
            },
            {
              "internalType": "address",
              "name": "paymentToken",
              "type": "address"
            },
            {
              "internalType": "uint256",
              "name": "createdAt",
              "type": "uint256"
            },
            {
              "internalType": "address",
              "name": "creator",
              "type": "address"
            }
          ],
          "internalType": "struct TokenFactory.BasicTokenInfo",
          "name": "basicInfo",
          "type": "tuple"
        },
        {
          "components": [
            {
              "internalType": "string",
              "name": "twitchUsername",
              "type": "string"
            },
            {
              "internalType": "string[]",
              "name": "socialLinks",
              "type": "string[]"
            },
            {
              "internalType": "string",
              "name": "profileImageUrl",
              "type": "string"
            },
            {
              "internalType": "string",
              "name": "category",
              "type": "string"
            }
          ],
          "internalType": "struct TokenFactory.CreatorInfo",
          "name": "creatorInfo",
          "type": "tuple"
        },
        {
          "internalType": "uint256",
          "name": "param1",
          "type": "uint256"
        },
        {
          "internalType": "uint256",
          "name": "param2",
          "type": "uint256"
        }
      ],
      "name": "createToken",
      "outputs": [
        {
          "internalType": "address",
          "name": "",
          "type": "address"
        }
      ],
      "stateMutability": "nonpayable",
      "type": "function"
    },
    {
      "inputs": [
        {
          "internalType": "address",
          "name": "",
          "type": "address"
        }
      ],
      "name": "creatorProfiles",
      "outputs": [
        {
          "internalType": "string",
          "name": "twitchUsername",
          "type": "string"
        },
        {
          "internalType": "string",
          "name": "profileImageUrl",
          "type": "string"
        },
        {
          "internalType": "string",
          "name": "category",
          "type": "string"
        }
      ],
      "stateMutability": "view",
      "type": "function"
    },
    {
      "inputs": [
        {
          "internalType": "address",
          "name": "",
          "type": "address"
        },
        {
          "internalType": "uint256",
          "name": "",
          "type": "uint256"
        }
      ],
      "name": "creatorTokens",
      "outputs": [
        {
          "internalType": "address",
          "name": "tokenAddress",
          "type": "address"
        },
        {
          "internalType": "string",
          "name": "name",
          "type": "string"
        },
        {
          "internalType": "string",
          "name": "symbol",
          "type": "string"
        },
        {
          "internalType": "string",
          "name": "description",
          "type": "string"
        },
        {
          "internalType": "enum TokenFactory.CurveType",
          "name": "curveType",
          "type": "uint8"
        },
        {
          "internalType": "address",
          "name": "curveAddress",
          "type": "address"
        },
        {
          "internalType": "address",
          "name": "paymentToken",
          "type": "address"
        },
        {
          "internalType": "uint256",
          "name": "createdAt",
          "type": "uint256"
        },
        {
          "internalType": "address",
          "name": "creator",
          "type": "address"
        }
      ],
      "stateMutability": "view",
      "type": "function"
    },
    {
      "inputs": [],
      "name": "getAllTokens",
      "outputs": [
        {
          "components": [
            {
              "internalType": "address",
              "name": "tokenAddress",
              "type": "address"
            },
            {
              "internalType": "string",
              "name": "name",
              "type": "string"
            },
            {
              "internalType": "string",
              "name": "symbol",
              "type": "string"
            },
            {
              "internalType": "string",
              "name": "description",
              "type": "string"
            },
            {
              "internalType": "enum TokenFactory.CurveType",
              "name": "curveType",
              "type": "uint8"
            },
            {
              "internalType": "address",
              "name": "curveAddress",
              "type": "address"
            },
            {
              "internalType": "address",
              "name": "paymentToken",
              "type": "address"
            },
            {
              "internalType": "uint256",
              "name": "createdAt",
              "type": "uint256"
            },
            {
              "internalType": "address",
              "name": "creator",
              "type": "address"
            }
          ],
          "internalType": "struct TokenFactory.BasicTokenInfo[]",
          "name": "",
          "type": "tuple[]"
        }
      ],
      "stateMutability": "view",
      "type": "function"
    },
    {
      "inputs": [],
      "name": "getAllTokensWithInfo",
      "outputs": [
        {
          "components": [
            {
              "components": [
                {
                  "internalType": "address",
                  "name": "tokenAddress",
                  "type": "address"
                },
                {
                  "internalType": "string",
                  "name": "name",
                  "type": "string"
                },
                {
                  "internalType": "string",
                  "name": "symbol",
                  "type": "string"
                },
                {
                  "internalType": "string",
                  "name": "description",
                  "type": "string"
                },
                {
                  "internalType": "enum TokenFactory.CurveType",
                  "name": "curveType",
                  "type": "uint8"
                },
                {
                  "internalType": "address",
                  "name": "curveAddress",
                  "type": "address"
                },
                {
                  "internalType": "address",
                  "name": "paymentToken",
                  "type": "address"
                },
                {
                  "internalType": "uint256",
                  "name": "createdAt",
                  "type": "uint256"
                },
                {
                  "internalType": "address",
                  "name": "creator",
                  "type": "address"
                }
              ],
              "internalType": "struct TokenFactory.BasicTokenInfo",
              "name": "basicInfo",
              "type": "tuple"
            },
            {
              "components": [
                {
                  "internalType": "string",
                  "name": "twitchUsername",
                  "type": "string"
                },
                {
                  "internalType": "string[]",
                  "name": "socialLinks",
                  "type": "string[]"
                },
                {
                  "internalType": "string",
                  "name": "profileImageUrl",
                  "type": "string"
                },
                {
                  "internalType": "string",
                  "name": "category",
                  "type": "string"
                }
              ],
              "internalType": "struct TokenFactory.CreatorInfo",
              "name": "creatorInfo",
              "type": "tuple"
            }
          ],
          "internalType": "struct TokenFactory.TokenInfo[]",
          "name": "",
          "type": "tuple[]"
        }
      ],
      "stateMutability": "view",
      "type": "function"
    },
    {
      "inputs": [
        {
          "internalType": "address",
          "name": "creator",
          "type": "address"
        }
      ],
      "name": "getCreatorTokenCount",
      "outputs": [
        {
          "internalType": "uint256",
          "name": "",
          "type": "uint256"
        }
      ],
      "stateMutability": "view",
      "type": "function"
    },
    {
      "inputs": [],
      "name": "getTokenCount",
      "outputs": [
        {
          "internalType": "uint256",
          "name": "",
          "type": "uint256"
        }
      ],
      "stateMutability": "view",
      "type": "function"
    },
    {
      "inputs": [
        {
          "internalType": "address",
          "name": "creator",
          "type": "address"
        }
      ],
      "name": "getTokensByCreator",
      "outputs": [
        {
          "components": [
            {
              "internalType": "address",
              "name": "tokenAddress",
              "type": "address"
            },
            {
              "internalType": "string",
              "name": "name",
              "type": "string"
            },
            {
              "internalType": "string",
              "name": "symbol",
              "type": "string"
            },
            {
              "internalType": "string",
              "name": "description",
              "type": "string"
            },
            {
              "internalType": "enum TokenFactory.CurveType",
              "name": "curveType",
              "type": "uint8"
            },
            {
              "internalType": "address",
              "name": "curveAddress",
              "type": "address"
            },
            {
              "internalType": "address",
              "name": "paymentToken",
              "type": "address"
            },
            {
              "internalType": "uint256",
              "name": "createdAt",
              "type": "uint256"
            },
            {
              "internalType": "address",
              "name": "creator",
              "type": "address"
            }
          ],
          "internalType": "struct TokenFactory.BasicTokenInfo[]",
          "name": "",
          "type": "tuple[]"
        }
      ],
      "stateMutability": "view",
      "type": "function"
    },
    {
      "inputs": [],
      "name": "owner",
      "outputs": [
        {
          "internalType": "address",
          "name": "",
          "type": "address"
        }
      ],
      "stateMutability": "view",
      "type": "function"
    },
    {
      "inputs": [],
      "name": "renounceOwnership",
      "outputs": [],
      "stateMutability": "nonpayable",
      "type": "function"
    },
    {
      "inputs": [
        {
          "internalType": "address",
          "name": "newOwner",
          "type": "address"
        }
      ],
      "name": "transferOwnership",
      "outputs": [],
      "stateMutability": "nonpayable",
      "type": "function"
    }
  ],
  "bytecode": "0x6080604052348015600f57600080fd5b503380603557604051631e4fbdf760e01b81526000600482015260240160405180910390fd5b603c816041565b506091565b600080546001600160a01b038381166001600160a01b0319831681178455604051919092169283917f8be0079c531659141344cd1fd0a4f28419497f9722a3daafe3b4186f6b6457e09190a35050565b615316806100a06000396000f3fe608060405234801561001057600080fd5b50600436106100b45760003560e01c8063bcd8375611610071578063bcd8375614610162578063bec0482614610177578063c6d8a04a1461018a578063d5c71275146101b3578063db3fa4cc146101c6578063f2fde38b146101d957600080fd5b80632a5c792a146100b9578063634282af146100d7578063715018a6146100ff57806378a89567146101095780638da5cb5b1461011b57806395b04be214610140575b600080fd5b6100c16101ec565b6040516100ce9190611a7f565b60405180910390f35b6100ea6100e5366004611ae4565b61048b565b6040516100ce99989796959493929190611afd565b61010761069a565b005b6003545b6040519081526020016100ce565b6000546001600160a01b03165b6040516001600160a01b0390911681526020016100ce565b61015361014e366004611baa565b6106ae565b6040516100ce93929190611bc5565b61016a610868565b6040516100ce9190611c08565b610128610185366004611f96565b610e5f565b61010d610198366004611baa565b6001600160a01b031660009081526001602052604090205490565b6100c16101c1366004611baa565b61129e565b6100ea6101d43660046120f8565b611553565b6101076101e7366004611baa565b6115a0565b60606003805480602002602001604051908101604052809291908181526020016000905b828210156104825760008481526020908190206040805161012081019091526008850290910180546001600160a01b03168252600181018054929391929184019161025a90612122565b80601f016020809104026020016040519081016040528092919081815260200182805461028690612122565b80156102d35780601f106102a8576101008083540402835291602001916102d3565b820191906000526020600020905b8154815290600101906020018083116102b657829003601f168201915b505050505081526020016002820180546102ec90612122565b80601f016020809104026020016040519081016040528092919081815260200182805461031890612122565b80156103655780601f1061033a57610100808354040283529160200191610365565b820191906000526020600020905b81548152906001019060200180831161034857829003601f168201915b5050505050815260200160038201805461037e90612122565b80601f01602080910402602001604051908101604052809291908181526020018280546103aa90612122565b80156103f75780601f106103cc576101008083540402835291602001916103f7565b820191906000526020600020905b8154815290600101906020018083116103da57829003601f168201915b5050509183525050600482015460209091019060ff16600381111561041e5761041e611970565b600381111561042f5761042f611970565b815260048201546001600160a01b03610100909104811660208084019190915260058401548216604084015260068401546060840152600790930154166080909101529082526001929092019101610210565b50505050905090565b6003818154811061049b57600080fd5b6000918252602090912060089091020180546001820180546001600160a01b039092169350906104ca90612122565b80601f01602080910402602001604051908101604052809291908181526020018280546104f690612122565b80156105435780601f1061051857610100808354040283529160200191610543565b820191906000526020600020905b81548152906001019060200180831161052657829003601f168201915b50505050509080600201805461055890612122565b80601f016020809104026020016040519081016040528092919081815260200182805461058490612122565b80156105d15780601f106105a6576101008083540402835291602001916105d1565b820191906000526020600020905b8154815290600101906020018083116105b457829003601f168201915b5050505050908060030180546105e690612122565b80601f016020809104026020016040519081016040528092919081815260200182805461061290612122565b801561065f5780601f106106345761010080835404028352916020019161065f565b820191906000526020600020905b81548152906001019060200180831161064257829003601f168201915b505050600484015460058501546006860154600790960154949560ff8316956001600160a01b03610100909404841695509183169350911689565b6106a26115de565b6106ac600061160b565b565b6002602052600090815260409020805481906106c990612122565b80601f01602080910402602001604051908101604052809291908181526020018280546106f590612122565b80156107425780601f1061071757610100808354040283529160200191610742565b820191906000526020600020905b81548152906001019060200180831161072557829003601f168201915b50505050509080600201805461075790612122565b80601f016020809104026020016040519081016040528092919081815260200182805461078390612122565b80156107d05780601f106107a5576101008083540402835291602001916107d0565b820191906000526020600020905b8154815290600101906020018083116107b357829003601f168201915b5050505050908060030180546107e590612122565b80601f016020809104026020016040519081016040528092919081815260200182805461081190612122565b801561085e5780601f106108335761010080835404028352916020019161085e565b820191906000526020600020905b81548152906001019060200180831161084157829003601f168201915b5050505050905083565b6003546060906000906001600160401b0381111561088857610888611d23565b6040519080825280602002602001820160405280156108c157816020015b6108ae61177e565b8152602001906001900390816108a65790505b50905060005b600354811015610e59576040518060400160405280600383815481106108ef576108ef612156565b600091825260209182902060408051610120810190915260089092020180546001600160a01b03168252600181018054929391929184019161093090612122565b80601f016020809104026020016040519081016040528092919081815260200182805461095c90612122565b80156109a95780601f1061097e576101008083540402835291602001916109a9565b820191906000526020600020905b81548152906001019060200180831161098c57829003601f168201915b505050505081526020016002820180546109c290612122565b80601f01602080910402602001604051908101604052809291908181526020018280546109ee90612122565b8015610a3b5780601f10610a1057610100808354040283529160200191610a3b565b820191906000526020600020905b815481529060010190602001808311610a1e57829003601f168201915b50505050508152602001600382018054610a5490612122565b80601f0160208091040260200160405190810160405280929190818152602001828054610a8090612122565b8015610acd5780601f10610aa257610100808354040283529160200191610acd565b820191906000526020600020905b815481529060010190602001808311610ab057829003601f168201915b5050509183525050600482015460209091019060ff166003811115610af457610af4611970565b6003811115610b0557610b05611970565b815260048201546001600160a01b036101009091048116602080840191909152600584015482166040840152600684015460608401526007909301541660809091015290825260038054929091019160029160009186908110610b6a57610b6a612156565b60009182526020808320600760089093020191909101546001600160a01b031683528201929092526040908101909120815160808101909252805482908290610bb290612122565b80601f0160208091040260200160405190810160405280929190818152602001828054610bde90612122565b8015610c2b5780601f10610c0057610100808354040283529160200191610c2b565b820191906000526020600020905b815481529060010190602001808311610c0e57829003601f168201915b5050505050815260200160018201805480602002602001604051908101604052809291908181526020016000905b82821015610d05578382906000526020600020018054610c7890612122565b80601f0160208091040260200160405190810160405280929190818152602001828054610ca490612122565b8015610cf15780601f10610cc657610100808354040283529160200191610cf1565b820191906000526020600020905b815481529060010190602001808311610cd457829003601f168201915b505050505081526020019060010190610c59565b505050508152602001600282018054610d1d90612122565b80601f0160208091040260200160405190810160405280929190818152602001828054610d4990612122565b8015610d965780601f10610d6b57610100808354040283529160200191610d96565b820191906000526020600020905b815481529060010190602001808311610d7957829003601f168201915b50505050508152602001600382018054610daf90612122565b80601f0160208091040260200160405190810160405280929190818152602001828054610ddb90612122565b8015610e285780601f10610dfd57610100808354040283529160200191610e28565b820191906000526020600020905b815481529060010190602001808311610e0b57829003601f168201915b505050505081525050815250828281518110610e4657610e46612156565b60209081029190910101526001016108c7565b50919050565b825151600090610eb65760405162461bcd60e51b815260206004820152601860248201527f54776974636820757365726e616d65207265717569726564000000000000000060448201526064015b60405180910390fd5b60058460200151511115610f045760405162461bcd60e51b8152602060048201526015602482015274546f6f206d616e7920736f6369616c206c696e6b7360581b6044820152606401610ead565b6000610f158660800151858561165b565b9050600086602001518760400151838960c0015133604051610f36906117c6565b610f4495949392919061216c565b604051809103906000f080158015610f60573d6000803e3d6000fd5b506001600160a01b03818116895283811660a08a01524260e08a0152336101008a018190526000908152600160208181526040832080548084018255908452928190208c5160089094020180546001600160a01b03191693909416929092178355908a0151929350899290820190610fd8908261220b565b5060408201516002820190610fed908261220b565b5060608201516003820190611002908261220b565b50608082015160048201805460ff1916600183600381111561102657611026611970565b021790555060a08201516004820180546001600160a01b03928316610100908102610100600160a81b03199092169190911790915560c08401516005840180549184166001600160a01b031992831617905560e08501516006850155930151600790920180549282169284169290921790915560038054600181018255600091909152895160089091027fc2575a0e9e593c00f959f8c92f12db2869c3395a3b0502d05e2516446f71f85b810180549290931691909316178155602089015189927fc2575a0e9e593c00f959f8c92f12db2869c3395a3b0502d05e2516446f71f85c0190611114908261220b565b5060408201516002820190611129908261220b565b506060820151600382019061113e908261220b565b50608082015160048201805460ff1916600183600381111561116257611162611970565b021790555060a0820151600482018054610100600160a81b0319166101006001600160a01b0393841681029190911790915560c08401516005840180546001600160a01b031990811692851692909217905560e08501516006850155930151600790920180549093169116179055336000908152600260205260409020865187919081906111f0908261220b565b50602082810151805161120992600185019201906117d3565b506040820151600282019061121e908261220b565b5060608201516003820190611233908261220b565b50905050336001600160a01b0316816001600160a01b03167f81b2c8a397ec791820fda8a174ba4714156d0b2a1fb31150d5621518c2a4666c89602001518a604001518b6080015160405161128a939291906122c9565b60405180910390a39150505b949350505050565b6001600160a01b0381166000908152600160209081526040808320805482518185028101850190935280835260609492939192909184015b828210156115485760008481526020908190206040805161012081019091526008850290910180546001600160a01b03168252600181018054929391929184019161132090612122565b80601f016020809104026020016040519081016040528092919081815260200182805461134c90612122565b80156113995780601f1061136e57610100808354040283529160200191611399565b820191906000526020600020905b81548152906001019060200180831161137c57829003601f168201915b505050505081526020016002820180546113b290612122565b80601f01602080910402602001604051908101604052809291908181526020018280546113de90612122565b801561142b5780601f106114005761010080835404028352916020019161142b565b820191906000526020600020905b81548152906001019060200180831161140e57829003601f168201915b5050505050815260200160038201805461144490612122565b80601f016020809104026020016040519081016040528092919081815260200182805461147090612122565b80156114bd5780601f10611492576101008083540402835291602001916114bd565b820191906000526020600020905b8154815290600101906020018083116114a057829003601f168201915b5050509183525050600482015460209091019060ff1660038111156114e4576114e4611970565b60038111156114f5576114f5611970565b815260048201546001600160a01b036101009091048116602080840191909152600584015482166040840152600684015460608401526007909301541660809091015290825260019290920191016112d6565b505050509050919050565b6001602052816000526040600020818154811061156f57600080fd5b6000918252602090912060089091020180546001820180546001600160a01b0390921694509192506104ca90612122565b6115a86115de565b6001600160a01b0381166115d257604051631e4fbdf760e01b815260006004820152602401610ead565b6115db8161160b565b50565b6000546001600160a01b031633146106ac5760405163118cdaa760e01b8152336004820152602401610ead565b600080546001600160a01b038381166001600160a01b0319831681178455604051919092169283917f8be0079c531659141344cd1fd0a4f28419497f9722a3daafe3b4186f6b6457e09190a35050565b60008084600381111561167057611670611970565b036116b15760008360405161168490611829565b9081526020015b604051809103906000f0801580156116a7573d6000803e3d6000fd5b5091506117779050565b60018460038111156116c5576116c5611970565b036116d95760008360405161168490611836565b60028460038111156116ed576116ed611970565b036117015760008360405161168490611843565b600384600381111561171557611715611970565b0361173a576000838360405161172a90611850565b918252602082015260400161168b565b60405162461bcd60e51b8152602060048201526012602482015271496e76616c6964206375727665207479706560701b6044820152606401610ead565b9392505050565b604051806040016040528061179161185d565b81526020016117c16040518060800160405280606081526020016060815260200160608152602001606081525090565b905290565b611517806122ff83390190565b828054828255906000526020600020908101928215611819579160200282015b828111156118195782518290611809908261220b565b50916020019190600101906117f3565b506118259291506118c3565b5090565b61062f8061381683390190565b61055880613e4583390190565b6106de8061439d83390190565b61086680614a7b83390190565b60405180610120016040528060006001600160a01b03168152602001606081526020016060815260200160608152602001600060038111156118a1576118a1611970565b8152600060208201819052604082018190526060820181905260809091015290565b808211156118255760006118d782826118e0565b506001016118c3565b5080546118ec90612122565b6000825580601f106118fc575050565b601f0160209004906000526020600020908101906115db91905b808211156118255760008155600101611916565b6000815180845260005b8181101561195057602081850181015186830182015201611934565b506000602082860101526020601f19601f83011685010191505092915050565b634e487b7160e01b600052602160045260246000fd5b600481106119a457634e487b7160e01b600052602160045260246000fd5b9052565b80516001600160a01b031682526000602082015161012060208501526119d261012085018261192a565b9050604083015184820360408601526119eb828261192a565b91505060608301518482036060860152611a05828261192a565b9150506080830151611a1a6080860182611986565b5060a0830151611a3560a08601826001600160a01b03169052565b5060c0830151611a5060c08601826001600160a01b03169052565b5060e083015160e0850152610100830151611a776101008601826001600160a01b03169052565b509392505050565b6000602082016020835280845180835260408501915060408160051b86010192506020860160005b82811015611ad857603f19878603018452611ac38583516119a8565b94506020938401939190910190600101611aa7565b50929695505050505050565b600060208284031215611af657600080fd5b5035919050565b6001600160a01b038a16815261012060208201819052600090611b229083018b61192a565b8281036040840152611b34818b61192a565b90508281036060840152611b48818a61192a565b915050611b586080830188611986565b6001600160a01b0395861660a083015293851660c082015260e08101929092529092166101009092019190915295945050505050565b80356001600160a01b0381168114611ba557600080fd5b919050565b600060208284031215611bbc57600080fd5b61177782611b8e565b606081526000611bd8606083018661192a565b8281036020840152611bea818661192a565b90508281036040840152611bfe818561192a565b9695505050505050565b6000602082016020835280845180835260408501915060408160051b86010192506020860160005b82811015611ad857603f198786030184528151805160408752611c5660408801826119a8565b9050602082015191508681036020880152815160808252611c7a608083018261192a565b60208481015184830385830152805180845292935081019181840191600582901b85010160005b82811015611cd257601f19868303018452611cbd82865161192a565b60209586019594909401939150600101611ca1565b50604087015194508581036040870152611cec818661192a565b945050505050606083015192508181036060830152611d0b818461192a565b97505050602094850194929092019150600101611c30565b634e487b7160e01b600052604160045260246000fd5b604051608081016001600160401b0381118282101715611d5b57611d5b611d23565b60405290565b60405161012081016001600160401b0381118282101715611d5b57611d5b611d23565b604051601f8201601f191681016001600160401b0381118282101715611dac57611dac611d23565b604052919050565b600082601f830112611dc557600080fd5b81356001600160401b03811115611dde57611dde611d23565b611df1601f8201601f1916602001611d84565b818152846020838601011115611e0657600080fd5b816020850160208301376000918101602001919091529392505050565b803560048110611ba557600080fd5b600082601f830112611e4357600080fd5b81356001600160401b03811115611e5c57611e5c611d23565b8060051b611e6c60208201611d84565b91825260208185018101929081019086841115611e8857600080fd5b6020860192505b83831015611bfe5782356001600160401b03811115611ead57600080fd5b611ebc886020838a0101611db4565b83525060209283019290910190611e8f565b600060808284031215611ee057600080fd5b611ee8611d39565b905081356001600160401b03811115611f0057600080fd5b611f0c84828501611db4565b82525060208201356001600160401b03811115611f2857600080fd5b611f3484828501611e32565b60208301525060408201356001600160401b03811115611f5357600080fd5b611f5f84828501611db4565b60408301525060608201356001600160401b03811115611f7e57600080fd5b611f8a84828501611db4565b60608301525092915050565b60008060008060808587031215611fac57600080fd5b84356001600160401b03811115611fc257600080fd5b85016101208188031215611fd557600080fd5b611fdd611d61565b611fe682611b8e565b815260208201356001600160401b0381111561200157600080fd5b61200d89828501611db4565b60208301525060408201356001600160401b0381111561202c57600080fd5b61203889828501611db4565b60408301525060608201356001600160401b0381111561205757600080fd5b61206389828501611db4565b60608301525061207560808301611e23565b608082015261208660a08301611b8e565b60a082015261209760c08301611b8e565b60c082015260e082810135908201526120b36101008301611b8e565b61010082015294505060208501356001600160401b038111156120d557600080fd5b6120e187828801611ece565b949794965050505060408301359260600135919050565b6000806040838503121561210b57600080fd5b61211483611b8e565b946020939093013593505050565b600181811c9082168061213657607f821691505b602082108103610e5957634e487b7160e01b600052602260045260246000fd5b634e487b7160e01b600052603260045260246000fd5b60a08152600061217f60a083018861192a565b8281036020840152612191818861192a565b6001600160a01b03968716604085015294861660608401525050921660809092019190915292915050565b601f82111561220657806000526020600020601f840160051c810160208510156121e35750805b601f840160051c820191505b8181101561220357600081556001016121ef565b50505b505050565b81516001600160401b0381111561222457612224611d23565b612238816122328454612122565b846121bc565b6020601f82116001811461226c57600083156122545750848201515b600019600385901b1c1916600184901b178455612203565b600084815260208120601f198516915b8281101561229c578785015182556020948501946001909201910161227c565b50848210156122ba5786840151600019600387901b60f8161c191681555b50505050600190811b01905550565b6060815260006122dc606083018661192a565b82810360208401526122ee818661192a565b915050611296604083018461198656fe608060405234801561001057600080fd5b5060405161151738038061151783398101604081905261002f9161021a565b808585600361003e838261033e565b50600461004b828261033e565b5050506001600160a01b03811661007c57604051631e4fbdf760e01b81526000600482015260240160405180910390fd5b610085816100f3565b50600680546001600160a01b038086166001600160a01b03199092169190911790915560078054600160a01b92851615830260ff60a01b1990911617908190550460ff166100e957600780546001600160a01b0319166001600160a01b0384161790555b50505050506103fc565b600580546001600160a01b038381166001600160a01b0319831681179093556040519116919082907f8be0079c531659141344cd1fd0a4f28419497f9722a3daafe3b4186f6b6457e090600090a35050565b634e487b7160e01b600052604160045260246000fd5b600082601f83011261016c57600080fd5b81516001600160401b0381111561018557610185610145565b604051601f8201601f19908116603f011681016001600160401b03811182821017156101b3576101b3610145565b6040528181528382016020018510156101cb57600080fd5b60005b828110156101ea576020818601810151838301820152016101ce565b506000918101602001919091529392505050565b80516001600160a01b038116811461021557600080fd5b919050565b600080600080600060a0868803121561023257600080fd5b85516001600160401b0381111561024857600080fd5b6102548882890161015b565b602088015190965090506001600160401b0381111561027257600080fd5b61027e8882890161015b565b94505061028d604087016101fe565b925061029b606087016101fe565b91506102a9608087016101fe565b90509295509295909350565b600181811c908216806102c957607f821691505b6020821081036102e957634e487b7160e01b600052602260045260246000fd5b50919050565b601f82111561033957806000526020600020601f840160051c810160208510156103165750805b601f840160051c820191505b818110156103365760008155600101610322565b50505b505050565b81516001600160401b0381111561035757610357610145565b61036b8161036584546102b5565b846102ef565b6020601f82116001811461039f57600083156103875750848201515b600019600385901b1c1916600184901b178455610336565b600084815260208120601f198516915b828110156103cf57878501518255602094850194600190920191016103af565b50848210156103ed5786840151600019600387901b60f8161c191681555b50505050600190811b01905550565b61110c8061040b6000396000f3fe60806040526004361061010d5760003560e01c806395d89b4111610095578063dcd57c9711610064578063dcd57c97146102da578063dd62ed3e146102fb578063e4849b3214610341578063eff1d50e14610361578063f2fde38b1461038157600080fd5b806395d89b4114610272578063a9059cbb14610287578063bd61f0a6146102a7578063d96a094a146102c757600080fd5b80633013ce29116100dc5780633013ce29146101b3578063313ce567146101eb57806370a0823114610207578063715018a61461023d5780638da5cb5b1461025457600080fd5b806306fdde0314610119578063095ea7b31461014457806318160ddd1461017457806323b872dd1461019357600080fd5b3661011457005b600080fd5b34801561012557600080fd5b5061012e6103a1565b60405161013b9190610ee6565b60405180910390f35b34801561015057600080fd5b5061016461015f366004610f50565b610433565b604051901515815260200161013b565b34801561018057600080fd5b506002545b60405190815260200161013b565b34801561019f57600080fd5b506101646101ae366004610f7a565b61044d565b3480156101bf57600080fd5b506007546101d3906001600160a01b031681565b6040516001600160a01b03909116815260200161013b565b3480156101f757600080fd5b506040516012815260200161013b565b34801561021357600080fd5b50610185610222366004610fb7565b6001600160a01b031660009081526020819052604090205490565b34801561024957600080fd5b50610252610471565b005b34801561026057600080fd5b506005546001600160a01b03166101d3565b34801561027e57600080fd5b5061012e610485565b34801561029357600080fd5b506101646102a2366004610f50565b610494565b3480156102b357600080fd5b506102526102c2366004610f50565b6104a2565b6102526102d5366004610fd9565b6105ba565b3480156102e657600080fd5b5060075461016490600160a01b900460ff1681565b34801561030757600080fd5b50610185610316366004610ff2565b6001600160a01b03918216600090815260016020908152604080832093909416825291909152205490565b34801561034d57600080fd5b5061025261035c366004610fd9565b61084a565b34801561036d57600080fd5b506006546101d3906001600160a01b031681565b34801561038d57600080fd5b5061025261039c366004610fb7565b610ad0565b6060600380546103b090611025565b80601f01602080910402602001604051908101604052809291908181526020018280546103dc90611025565b80156104295780601f106103fe57610100808354040283529160200191610429565b820191906000526020600020905b81548152906001019060200180831161040c57829003601f168201915b5050505050905090565b600033610441818585610b0e565b60019150505b92915050565b60003361045b858285610b1b565b610466858585610b99565b506001949350505050565b610479610bf8565b6104836000610c25565b565b6060600480546103b090611025565b600033610441818585610b99565b6104aa610bf8565b600754600160a01b900460ff161580156104d257506007546001600160a01b03838116911614155b6105235760405162461bcd60e51b815260206004820152601d60248201527f43616e6e6f74207769746864726177207061796d656e7420746f6b656e00000060448201526064015b60405180910390fd5b816001600160a01b031663a9059cbb6105446005546001600160a01b031690565b6040516001600160e01b031960e084901b1681526001600160a01b039091166004820152602481018490526044016020604051808303816000875af1158015610591573d6000803e3d6000fd5b505050506040513d601f19601f820116820180604052508101906105b5919061105f565b505050565b6006546000906001600160a01b031663ace4e8246105d760025490565b846040518363ffffffff1660e01b81526004016105fe929190918252602082015260400190565b602060405180830381865afa15801561061b573d6000803e3d6000fd5b505050506040513d601f19601f8201168201806040525081019061063f9190611081565b600754909150600160a01b900460ff1615610739578034101561069b5760405162461bcd60e51b8152602060048201526014602482015273125b9cdd59999a58da595b9d081c185e5b595b9d60621b604482015260640161051a565b80341115610734576000336106b083346110b0565b604051600081818185875af1925050503d80600081146106ec576040519150601f19603f3d011682016040523d82523d6000602084013e6106f1565b606091505b50509050806107325760405162461bcd60e51b815260206004820152600d60248201526c1499599d5b990819985a5b1959609a1b604482015260640161051a565b505b610800565b6007546040516323b872dd60e01b8152336004820152306024820152604481018390526001600160a01b03909116906323b872dd906064016020604051808303816000875af1158015610790573d6000803e3d6000fd5b505050506040513d601f19601f820116820180604052508101906107b4919061105f565b6108005760405162461bcd60e51b815260206004820152601d60248201527f5061796d656e7420746f6b656e207472616e73666572206661696c6564000000604482015260640161051a565b61080a3383610c77565b604080518381526020810183905233917f1cbc5ab135991bd2b6a4b034a04aa2aa086dac1371cb9b16b8b5e2ed6b036bed91015b60405180910390a25050565b336000908152602081905260409020548111156108a05760405162461bcd60e51b8152602060048201526014602482015273496e73756666696369656e742062616c616e636560601b604482015260640161051a565b6006546000906001600160a01b031663071f85216108bd60025490565b846040518363ffffffff1660e01b81526004016108e4929190918252602082015260400190565b602060405180830381865afa158015610901573d6000803e3d6000fd5b505050506040513d601f19601f820116820180604052508101906109259190611081565b90506109313383610cb1565b600754600160a01b900460ff16156109d757604051600090339083908381818185875af1925050503d8060008114610985576040519150601f19603f3d011682016040523d82523d6000602084013e61098a565b606091505b50509050806109d15760405162461bcd60e51b8152602060048201526013602482015272115512081d1c985b9cd9995c8819985a5b1959606a1b604482015260640161051a565b50610a98565b60075460405163a9059cbb60e01b8152336004820152602481018390526001600160a01b039091169063a9059cbb906044016020604051808303816000875af1158015610a28573d6000803e3d6000fd5b505050506040513d601f19601f82011682018060405250810190610a4c919061105f565b610a985760405162461bcd60e51b815260206004820152601d60248201527f5061796d656e7420746f6b656e207472616e73666572206661696c6564000000604482015260640161051a565b604080518381526020810183905233917fed7a144fad14804d5c249145e3e0e2b63a9eb455b76aee5bc92d711e9bba3e4a910161083e565b610ad8610bf8565b6001600160a01b038116610b0257604051631e4fbdf760e01b81526000600482015260240161051a565b610b0b81610c25565b50565b6105b58383836001610ce7565b6001600160a01b038381166000908152600160209081526040808320938616835292905220546000198114610b935781811015610b8457604051637dc7a0d960e11b81526001600160a01b0384166004820152602481018290526044810183905260640161051a565b610b9384848484036000610ce7565b50505050565b6001600160a01b038316610bc357604051634b637e8f60e11b81526000600482015260240161051a565b6001600160a01b038216610bed5760405163ec442f0560e01b81526000600482015260240161051a565b6105b5838383610dbc565b6005546001600160a01b031633146104835760405163118cdaa760e01b815233600482015260240161051a565b600580546001600160a01b038381166001600160a01b0319831681179093556040519116919082907f8be0079c531659141344cd1fd0a4f28419497f9722a3daafe3b4186f6b6457e090600090a35050565b6001600160a01b038216610ca15760405163ec442f0560e01b81526000600482015260240161051a565b610cad60008383610dbc565b5050565b6001600160a01b038216610cdb57604051634b637e8f60e11b81526000600482015260240161051a565b610cad82600083610dbc565b6001600160a01b038416610d115760405163e602df0560e01b81526000600482015260240161051a565b6001600160a01b038316610d3b57604051634a1406b160e11b81526000600482015260240161051a565b6001600160a01b0380851660009081526001602090815260408083209387168352929052208290558015610b9357826001600160a01b0316846001600160a01b03167f8c5be1e5ebec7d5bd14f71427d1e84f3dd0314c0f7b2291e5b200ac8c7c3b92584604051610dae91815260200190565b60405180910390a350505050565b6001600160a01b038316610de7578060026000828254610ddc91906110c3565b90915550610e599050565b6001600160a01b03831660009081526020819052604090205481811015610e3a5760405163391434e360e21b81526001600160a01b0385166004820152602481018290526044810183905260640161051a565b6001600160a01b03841660009081526020819052604090209082900390555b6001600160a01b038216610e7557600280548290039055610e94565b6001600160a01b03821660009081526020819052604090208054820190555b816001600160a01b0316836001600160a01b03167fddf252ad1be2c89b69c2b068fc378daa952ba7f163c4a11628f55a4df523b3ef83604051610ed991815260200190565b60405180910390a3505050565b602081526000825180602084015260005b81811015610f145760208186018101516040868401015201610ef7565b506000604082850101526040601f19601f83011684010191505092915050565b80356001600160a01b0381168114610f4b57600080fd5b919050565b60008060408385031215610f6357600080fd5b610f6c83610f34565b946020939093013593505050565b600080600060608486031215610f8f57600080fd5b610f9884610f34565b9250610fa660208501610f34565b929592945050506040919091013590565b600060208284031215610fc957600080fd5b610fd282610f34565b9392505050565b600060208284031215610feb57600080fd5b5035919050565b6000806040838503121561100557600080fd5b61100e83610f34565b915061101c60208401610f34565b90509250929050565b600181811c9082168061103957607f821691505b60208210810361105957634e487b7160e01b600052602260045260246000fd5b50919050565b60006020828403121561107157600080fd5b81518015158114610fd257600080fd5b60006020828403121561109357600080fd5b5051919050565b634e487b7160e01b600052601160045260246000fd5b818103818111156104475761044761109a565b808201808211156104475761044761109a56fea264697066735822122035c557317956196cd15afae3d1ba89bcc1e43e72492e5836f2ede67ab04e2eee64736f6c634300081b00336080604052348015600f57600080fd5b5060405161062f38038061062f833981016040819052602c91604d565b60356002826065565b600055504260035567016345785d8a00006002556086565b600060208284031215605e57600080fd5b5051919050565b600082608157634e487b7160e01b600052601260045260246000fd5b500490565b61059a806100956000396000f3fe608060405234801561001057600080fd5b50600436106100cf5760003560e01c806383caf2751161008c578063ace4e82411610066578063ace4e8241461015f578063c55d0f5614610102578063c8f33c9114610172578063f86325ed1461017b57600080fd5b806383caf275146101395780639670c0bc14610142578063aaf5eb681461015057600080fd5b8063053f14da146100d4578063071f8521146100ef5780630fda366d1461010257806341244829146101155780635f81a57c1461012857806379c84f9c14610131575b600080fd5b6100dd60025481565b60405190815260200160405180910390f35b6100dd6100fd366004610476565b61018a565b6100dd610110366004610498565b610286565b6100dd6101233660046104b1565b6102bb565b6100dd60015481565b6000546100dd565b6100dd60005481565b670de0b6b3a76400006100dd565b6100dd670de0b6b3a764000081565b6100dd61016d366004610476565b61042b565b6100dd60035481565b6100dd67016345785d8a000081565b60008183116101d35760405162461bcd60e51b815260206004820152601060248201526f416d6f756e7420746f6f206c6172676560801b60448201526064015b60405180910390fd5b60006002670de0b6b3a764000060005485876101ef9190610505565b6101f99190610518565b610203919061052f565b67016345785d8a0000670de0b6b3a7640000600054886102239190610518565b61022d919061052f565b61023f9067016345785d8a0000610551565b6102499190610551565b6102539190610551565b61025d919061052f565b9050670de0b6b3a76400006102728285610518565b61027c919061052f565b9150505b92915050565b6000670de0b6b3a76400006000548361029f9190610518565b6102a9919061052f565b6102809067016345785d8a0000610551565b600080670de0b6b3a7640000600054866102d59190610518565b6102df919061052f565b6102f19067016345785d8a0000610551565b9050821561037c5760008054670de0b6b3a7640000906103118789610551565b61031b9190610518565b610325919061052f565b6103379067016345785d8a0000610551565b905081811161034b57600092505050610424565b81670de0b6b3a764000061035f8284610505565b6103699190610518565b610373919061052f565b92505050610424565b8484106103be5760405162461bcd60e51b815260206004820152601060248201526f416d6f756e7420746f6f206c6172676560801b60448201526064016101ca565b60008054670de0b6b3a7640000906103d68789610505565b6103e09190610518565b6103ea919061052f565b6103fc9067016345785d8a0000610551565b905081811061041057600092505050610424565b81670de0b6b3a764000061035f8383610505565b9392505050565b600080670de0b6b3a7640000600054856104459190610518565b61044f919061052f565b6104619067016345785d8a0000610551565b905080610272670de0b6b3a764000085610518565b6000806040838503121561048957600080fd5b50508035926020909101359150565b6000602082840312156104aa57600080fd5b5035919050565b6000806000606084860312156104c657600080fd5b8335925060208401359150604084013580151581146104e457600080fd5b809150509250925092565b634e487b7160e01b600052601160045260246000fd5b81810381811115610280576102806104ef565b8082028115828204841417610280576102806104ef565b60008261054c57634e487b7160e01b600052601260045260246000fd5b500490565b80820180821115610280576102806104ef56fea2646970667358221220afa924b90411665c4033d68e798e03cc871fc96f5511ce2d183945f7f4fb205764736f6c634300081b00336080604052348015600f57600080fd5b50604051610558380380610558833981016040819052602c91604e565b6036816103e86066565b600055504260035567016345785d8a0000600255608c565b600060208284031215605f57600080fd5b5051919050565b80820180821115608657634e487b7160e01b600052601160045260246000fd5b92915050565b6104bd8061009b6000396000f3fe608060405234801561001057600080fd5b50600436106100cf5760003560e01c806379c84f9c1161008c578063ace4e82411610066578063ace4e8241461015f578063c55d0f5614610102578063c8f33c9114610172578063f86325ed1461017b57600080fd5b806379c84f9c1461013a5780639670c0bc14610142578063aaf5eb681461015057600080fd5b8063053f14da146100d4578063071f8521146100ef5780630fda366d1461010257806341244829146101155780635001f3b5146101285780635f81a57c14610131575b600080fd5b6100dd60025481565b60405190815260200160405180910390f35b6100dd6100fd366004610399565b61018a565b6100dd6101103660046103bb565b61022e565b6100dd6101233660046103d4565b610239565b6100dd60005481565b6100dd60015481565b6000546100dd565b670de0b6b3a76400006100dd565b6100dd670de0b6b3a764000081565b6100dd61016d366004610399565b6102e5565b6100dd60035481565b6100dd67016345785d8a000081565b60008183116101d25760405162461bcd60e51b815260206004820152601060248201526f416d6f756e7420746f6f206c6172676560801b604482015260640160405180910390fd5b600060026101e86101e38587610428565b610306565b6101f186610306565b6101fb919061043b565b610205919061044e565b9050670de0b6b3a764000061021a8285610470565b610224919061044e565b9150505b92915050565b600061022882610306565b60008061024585610306565b90506000836102605761025b6101e38688610428565b61026d565b61026d6101e3868861043b565b905083156102b857818111610287576000925050506102de565b81670de0b6b3a764000061029b8284610428565b6102a59190610470565b6102af919061044e565b925050506102de565b8181106102ca576000925050506102de565b81670de0b6b3a764000061029b8383610428565b9392505050565b6000806102f184610306565b90508061021a670de0b6b3a764000085610470565b60008160000361031f575067016345785d8a0000919050565b6000610335670de0b6b3a76400006103e8610470565b670de0b6b3a76400006000548561034c9190610470565b6103569190610470565b610360919061044e565b9050670de0b6b3a764000061037d8267016345785d8a0000610470565b610387919061044e565b6102de9067016345785d8a000061043b565b600080604083850312156103ac57600080fd5b50508035926020909101359150565b6000602082840312156103cd57600080fd5b5035919050565b6000806000606084860312156103e957600080fd5b83359250602084013591506040840135801515811461040757600080fd5b809150509250925092565b634e487b7160e01b600052601160045260246000fd5b8181038181111561022857610228610412565b8082018082111561022857610228610412565b60008261046b57634e487b7160e01b600052601260045260246000fd5b500490565b80820281158282048414176102285761022861041256fea2646970667358221220b4b3cb494f8f90a8e1482406bfb17ceffa4251bc763e8e793c9f9a50aa17851d64736f6c634300081b00336080604052348015600f57600080fd5b506040516106de3803806106de833981016040819052602c916043565b6000554260035567016345785d8a0000600255605b565b600060208284031215605457600080fd5b5051919050565b6106748061006a6000396000f3fe608060405234801561001057600080fd5b50600436106100cf5760003560e01c806379c84f9c1161008c578063ace4e82411610066578063ace4e8241461015f578063c55d0f5614610102578063c8f33c9114610172578063f86325ed1461017b57600080fd5b806379c84f9c1461013a5780639670c0bc14610142578063aaf5eb681461015057600080fd5b8063053f14da146100d4578063071f8521146100ef5780630fda366d146101025780631b3ed72214610115578063412448291461011e5780635f81a57c14610131575b600080fd5b6100dd60025481565b60405190815260200160405180910390f35b6100dd6100fd366004610518565b61018a565b6100dd61011036600461053a565b61022f565b6100dd60005481565b6100dd61012c366004610553565b61023a565b6100dd60015481565b6000546100dd565b670de0b6b3a76400006100dd565b6100dd670de0b6b3a764000081565b6100dd61016d366004610518565b6102e6565b6100dd60035481565b6100dd67016345785d8a000081565b60008183116101d35760405162461bcd60e51b815260206004820152601060248201526f416d6f756e7420746f6f206c6172676560801b60448201526064015b60405180910390fd5b600060026101e96101e485876105a7565b61033c565b6101f28661033c565b6101fc91906105ba565b61020691906105cd565b9050670de0b6b3a764000061021b82856105ef565b61022591906105cd565b9150505b92915050565b60006102298261033c565b6000806102468561033c565b90506000836102615761025c6101e486886105a7565b61026e565b61026e6101e486886105ba565b905083156102b957818111610288576000925050506102df565b81670de0b6b3a764000061029c82846105a7565b6102a691906105ef565b6102b091906105cd565b925050506102df565b8181106102cb576000925050506102df565b81670de0b6b3a764000061029c83836105a7565b9392505050565b60008260000361031c5767016345785d8a000061030b670de0b6b3a7640000846105ef565b61031591906105cd565b9050610229565b60006103278461033c565b90508061021b670de0b6b3a7640000856105ef565b600081600003610355575067016345785d8a0000919050565b60008054670de0b6b3a76400009061037561037083876105ba565b6103c2565b61037f91906105ef565b61038991906105cd565b9050670de0b6b3a76400006103a68267016345785d8a00006105ef565b6103b091906105cd565b6102df9067016345785d8a00006105ba565b60008082116104035760405162461bcd60e51b815260206004820152600d60248201526c125b9d985b1a59081a5b9c1d5d609a1b60448201526064016101ca565b60005b610419670de0b6b3a764000060026105ef565b831061046957610431670de0b6b3a7640000826105ba565b9050610446670de0b6b3a764000060026105ef565b610458670de0b6b3a7640000856105ef565b61046291906105cd565b9250610406565b82670de0b6b3a764000061047d81836105a7565b61048791906105ef565b61049191906105cd565b92508261049e81836105ba565b915060025b600a8160ff161161050f576104c3670de0b6b3a764000060ff83166105ef565b6104ce600183610606565b60ff166104db87856105ef565b6104e591906105ef565b6104ef91906105cd565b91506104fb82846105ba565b9250806105078161061f565b9150506104a3565b50909392505050565b6000806040838503121561052b57600080fd5b50508035926020909101359150565b60006020828403121561054c57600080fd5b5035919050565b60008060006060848603121561056857600080fd5b83359250602084013591506040840135801515811461058657600080fd5b809150509250925092565b634e487b7160e01b600052601160045260246000fd5b8181038181111561022957610229610591565b8082018082111561022957610229610591565b6000826105ea57634e487b7160e01b600052601260045260246000fd5b500490565b808202811582820484141761022957610229610591565b60ff828116828216039081111561022957610229610591565b600060ff821660ff810361063557610635610591565b6001019291505056fea2646970667358221220d155e14fe7cd962ab56772ad50a72d2d7f3bc30455c003ae878f5bc6ebe1026f64736f6c634300081b00336080604052348015600f57600080fd5b50604051610866380380610866833981016040819052602c916049565b6000919091556001554260035567016345785d8a0000600255606c565b60008060408385031215605b57600080fd5b505080516020909101519092909150565b6107eb8061007b6000396000f3fe608060405234801561001057600080fd5b50600436106100f55760003560e01c806387563ec111610097578063c55d0f5611610066578063c55d0f5614610128578063c8f33c91146101a0578063ceacdca8146101a9578063f86325ed146101b257600080fd5b806387563ec1146101675780639670c0bc14610170578063aaf5eb681461017e578063ace4e8241461018d57600080fd5b806341244829116100d3578063412448291461013b5780635a7e4a6d1461014e5780635f81a57c1461015657806379c84f9c1461015f57600080fd5b8063053f14da146100fa578063071f8521146101155780630fda366d14610128575b600080fd5b61010360025481565b60405190815260200160405180910390f35b610103610123366004610656565b6101c1565b610103610136366004610678565b610266565b610103610149366004610691565b610271565b61010361032e565b61010360045481565b600054610103565b61010360005481565b670de0b6b3a7640000610103565b610103670de0b6b3a764000081565b61010361019b366004610656565b610344565b61010360035481565b61010360015481565b61010367016345785d8a000081565b600081831161020a5760405162461bcd60e51b815260206004820152601060248201526f416d6f756e7420746f6f206c6172676560801b60448201526064015b60405180910390fd5b6000600261022061021b85876106e5565b61039a565b6102298661039a565b61023391906106f8565b61023d9190610721565b9050670de0b6b3a76400006102528285610735565b61025c9190610721565b9150505b92915050565b60006102608261039a565b60008061027d8561039a565b9050600083156102d95761029461021b86886106f8565b90508181116102a857600092505050610327565b81670de0b6b3a76400006102bc82846106e5565b6102c69190610735565b6102d09190610721565b92505050610327565b8486116102f257670de0b6b3a764000092505050610327565b6102ff61021b86886106e5565b905081811061031357600092505050610327565b81670de0b6b3a76400006102bc83836106e5565b9392505050565b61034167016345785d8a00006005610735565b81565b60008260000361037a5767016345785d8a0000610369670de0b6b3a764000084610735565b6103739190610721565b9050610260565b60006103858461039a565b905080610252670de0b6b3a764000085610735565b6000816000036103b3575067016345785d8a0000919050565b60006001548311156103fd576103d2600a670de0b6b3a7640000610721565b6000546001546103e290866106e5565b6103ec9190610735565b6103f6919061074c565b9050610441565b610410600a670de0b6b3a7640000610721565b6000548460015461042191906106e5565b61042b9190610735565b6104349061077a565b61043e919061074c565b90505b600881131561044e575060085b60071981121561045d57506007195b60008082126104a957600061047183610540565b905061048581670de0b6b3a76400006106f8565b610497670de0b6b3a764000083610735565b6104a19190610721565b9150506104f0565b60006104bc6104b78461077a565b610540565b90506104d081670de0b6b3a76400006106f8565b6104e2670de0b6b3a764000080610735565b6104ec9190610721565b9150505b6000670de0b6b3a76400008261050f67016345785d8a00006005610735565b6105199190610735565b6105239190610721565b90506105378167016345785d8a00006106f8565b95945050505050565b60006032821315801561055557506031198212155b6105905760405162461bcd60e51b815260206004820152600c60248201526b457870206f766572666c6f7760a01b6044820152606401610201565b816000036105a75750670de0b6b3a7640000919050565b60008212156105e5576105b98261077a565b915060006105c6836105ea565b9050806105db670de0b6b3a764000080610735565b6103279190610721565b610260825b6000670de0b6b3a76400008060015b60088160ff161161064d57610619670de0b6b3a764000060ff8316610735565b6106238684610735565b61062d9190610721565b915061063982846106f8565b92508061064581610796565b9150506105f9565b50909392505050565b6000806040838503121561066957600080fd5b50508035926020909101359150565b60006020828403121561068a57600080fd5b5035919050565b6000806000606084860312156106a657600080fd5b8335925060208401359150604084013580151581146106c457600080fd5b809150509250925092565b634e487b7160e01b600052601160045260246000fd5b81810381811115610260576102606106cf565b80820180821115610260576102606106cf565b634e487b7160e01b600052601260045260246000fd5b6000826107305761073061070b565b500490565b8082028115828204841417610260576102606106cf565b60008261075b5761075b61070b565b600160ff1b821460001984141615610775576107756106cf565b500590565b6000600160ff1b820161078f5761078f6106cf565b5060000390565b600060ff821660ff81036107ac576107ac6106cf565b6001019291505056fea2646970667358221220b07442e011c70a036cf5f7e10bc6c1cf2eeb39e689ecf6a5b72aede8566e5d4b64736f6c634300081b0033a2646970667358221220794d0c70fe8193291d397549058d892a4c43eab6a39f3ff2a4f5dcb184fc877c64736f6c634300081b0033",
  "linkReferences": {},
  "deployedLinkReferences": {}
}