{
  "_format": "hh-sol-artifact-1",
  "contractName": "SigmoidCurve",
  "sourceName": "contracts/curves/SigmoidCurve.sol",
  "abi": [
    {
      "inputs": [
        {
          "internalType": "uint256",
          "name": "_steepness",
          "type": "uint256"
        },
        {
          "internalType": "uint256",
          "name": "_midpoint",
          "type": "uint256"
        }
      ],
      "stateMutability": "nonpayable",
      "type": "constructor"
    },
    {
      "anonymous": false,
      "inputs": [
        {
          "indexed": false,
          "internalType": "uint256",
          "name": "oldPrice",
          "type": "uint256"
        },
        {
          "indexed": false,
          "internalType": "uint256",
          "name": "newPrice",
          "type": "uint256"
        },
        {
          "indexed": false,
          "internalType": "uint256",
          "name": "timestamp",
          "type": "uint256"
        }
      ],
      "name": "PriceUpdate",
      "type": "event"
    },
    {
      "anonymous": false,
      "inputs": [
        {
          "indexed": false,
          "internalType": "uint256",
          "name": "volume",
          "type": "uint256"
        },
        {
          "indexed": false,
          "internalType": "bool",
          "name": "isBuy",
          "type": "bool"
        },
        {
          "indexed": false,
          "internalType": "uint256",
          "name": "timestamp",
          "type": "uint256"
        }
      ],
      "name": "VolumeUpdate",
      "type": "event"
    },
    {
      "inputs": [],
      "name": "BASE_PRICE",
      "outputs": [
        {
          "internalType": "uint256",
          "name": "",
          "type": "uint256"
        }
      ],
      "stateMutability": "view",
      "type": "function"
    },
    {
      "inputs": [],
      "name": "PRECISION",
      "outputs": [
        {
          "internalType": "uint256",
          "name": "",
          "type": "uint256"
        }
      ],
      "stateMutability": "view",
      "type": "function"
    },
    {
      "inputs": [],
      "name": "PRICE_RANGE",
      "outputs": [
        {
          "internalType": "uint256",
          "name": "",
          "type": "uint256"
        }
      ],
      "stateMutability": "view",
      "type": "function"
    },
    {
      "inputs": [
        {
          "internalType": "uint256",
          "name": "supply",
          "type": "uint256"
        },
        {
          "internalType": "uint256",
          "name": "amount",
          "type": "uint256"
        }
      ],
      "name": "calculatePurchaseReturn",
      "outputs": [
        {
          "internalType": "uint256",
          "name": "",
          "type": "uint256"
        }
      ],
      "stateMutability": "view",
      "type": "function"
    },
    {
      "inputs": [
        {
          "internalType": "uint256",
          "name": "supply",
          "type": "uint256"
        },
        {
          "internalType": "uint256",
          "name": "amount",
          "type": "uint256"
        }
      ],
      "name": "calculateSaleReturn",
      "outputs": [
        {
          "internalType": "uint256",
          "name": "",
          "type": "uint256"
        }
      ],
      "stateMutability": "view",
      "type": "function"
    },
    {
      "inputs": [
        {
          "internalType": "uint256",
          "name": "supply",
          "type": "uint256"
        }
      ],
      "name": "getCurrentPrice",
      "outputs": [
        {
          "internalType": "uint256",
          "name": "",
          "type": "uint256"
        }
      ],
      "stateMutability": "view",
      "type": "function"
    },
    {
      "inputs": [],
      "name": "getPrecision",
      "outputs": [
        {
          "internalType": "uint256",
          "name": "",
          "type": "uint256"
        }
      ],
      "stateMutability": "pure",
      "type": "function"
    },
    {
      "inputs": [
        {
          "internalType": "uint256",
          "name": "supply",
          "type": "uint256"
        },
        {
          "internalType": "uint256",
          "name": "amount",
          "type": "uint256"
        },
        {
          "internalType": "bool",
          "name": "isBuy",
          "type": "bool"
        }
      ],
      "name": "getPriceImpact",
      "outputs": [
        {
          "internalType": "uint256",
          "name": "",
          "type": "uint256"
        }
      ],
      "stateMutability": "view",
      "type": "function"
    },
    {
      "inputs": [],
      "name": "getSlope",
      "outputs": [
        {
          "internalType": "uint256",
          "name": "",
          "type": "uint256"
        }
      ],
      "stateMutability": "view",
      "type": "function"
    },
    {
      "inputs": [
        {
          "internalType": "uint256",
          "name": "supply",
          "type": "uint256"
        }
      ],
      "name": "getSpotPrice",
      "outputs": [
        {
          "internalType": "uint256",
          "name": "",
          "type": "uint256"
        }
      ],
      "stateMutability": "view",
      "type": "function"
    },
    {
      "inputs": [],
      "name": "lastPrice",
      "outputs": [
        {
          "internalType": "uint256",
          "name": "",
          "type": "uint256"
        }
      ],
      "stateMutability": "view",
      "type": "function"
    },
    {
      "inputs": [],
      "name": "lastUpdateTime",
      "outputs": [
        {
          "internalType": "uint256",
          "name": "",
          "type": "uint256"
        }
      ],
      "stateMutability": "view",
      "type": "function"
    },
    {
      "inputs": [],
      "name": "midpoint",
      "outputs": [
        {
          "internalType": "uint256",
          "name": "",
          "type": "uint256"
        }
      ],
      "stateMutability": "view",
      "type": "function"
    },
    {
      "inputs": [],
      "name": "steepness",
      "outputs": [
        {
          "internalType": "uint256",
          "name": "",
          "type": "uint256"
        }
      ],
      "stateMutability": "view",
      "type": "function"
    },
    {
      "inputs": [],
      "name": "totalVolume",
      "outputs": [
        {
          "internalType": "uint256",
          "name": "",
          "type": "uint256"
        }
      ],
      "stateMutability": "view",
      "type": "function"
    }
  ],
  "bytecode": "0x6080604052348015600f57600080fd5b50604051610866380380610866833981016040819052602c916049565b6000919091556001554260035567016345785d8a0000600255606c565b60008060408385031215605b57600080fd5b505080516020909101519092909150565b6107eb8061007b6000396000f3fe608060405234801561001057600080fd5b50600436106100f55760003560e01c806387563ec111610097578063c55d0f5611610066578063c55d0f5614610128578063c8f33c91146101a0578063ceacdca8146101a9578063f86325ed146101b257600080fd5b806387563ec1146101675780639670c0bc14610170578063aaf5eb681461017e578063ace4e8241461018d57600080fd5b806341244829116100d3578063412448291461013b5780635a7e4a6d1461014e5780635f81a57c1461015657806379c84f9c1461015f57600080fd5b8063053f14da146100fa578063071f8521146101155780630fda366d14610128575b600080fd5b61010360025481565b60405190815260200160405180910390f35b610103610123366004610656565b6101c1565b610103610136366004610678565b610266565b610103610149366004610691565b610271565b61010361032e565b61010360045481565b600054610103565b61010360005481565b670de0b6b3a7640000610103565b610103670de0b6b3a764000081565b61010361019b366004610656565b610344565b61010360035481565b61010360015481565b61010367016345785d8a000081565b600081831161020a5760405162461bcd60e51b815260206004820152601060248201526f416d6f756e7420746f6f206c6172676560801b60448201526064015b60405180910390fd5b6000600261022061021b85876106e5565b61039a565b6102298661039a565b61023391906106f8565b61023d9190610721565b9050670de0b6b3a76400006102528285610735565b61025c9190610721565b9150505b92915050565b60006102608261039a565b60008061027d8561039a565b9050600083156102d95761029461021b86886106f8565b90508181116102a857600092505050610327565b81670de0b6b3a76400006102bc82846106e5565b6102c69190610735565b6102d09190610721565b92505050610327565b8486116102f257670de0b6b3a764000092505050610327565b6102ff61021b86886106e5565b905081811061031357600092505050610327565b81670de0b6b3a76400006102bc83836106e5565b9392505050565b61034167016345785d8a00006005610735565b81565b60008260000361037a5767016345785d8a0000610369670de0b6b3a764000084610735565b6103739190610721565b9050610260565b60006103858461039a565b905080610252670de0b6b3a764000085610735565b6000816000036103b3575067016345785d8a0000919050565b60006001548311156103fd576103d2600a670de0b6b3a7640000610721565b6000546001546103e290866106e5565b6103ec9190610735565b6103f6919061074c565b9050610441565b610410600a670de0b6b3a7640000610721565b6000548460015461042191906106e5565b61042b9190610735565b6104349061077a565b61043e919061074c565b90505b600881131561044e575060085b60071981121561045d57506007195b60008082126104a957600061047183610540565b905061048581670de0b6b3a76400006106f8565b610497670de0b6b3a764000083610735565b6104a19190610721565b9150506104f0565b60006104bc6104b78461077a565b610540565b90506104d081670de0b6b3a76400006106f8565b6104e2670de0b6b3a764000080610735565b6104ec9190610721565b9150505b6000670de0b6b3a76400008261050f67016345785d8a00006005610735565b6105199190610735565b6105239190610721565b90506105378167016345785d8a00006106f8565b95945050505050565b60006032821315801561055557506031198212155b6105905760405162461bcd60e51b815260206004820152600c60248201526b457870206f766572666c6f7760a01b6044820152606401610201565b816000036105a75750670de0b6b3a7640000919050565b60008212156105e5576105b98261077a565b915060006105c6836105ea565b9050806105db670de0b6b3a764000080610735565b6103279190610721565b610260825b6000670de0b6b3a76400008060015b60088160ff161161064d57610619670de0b6b3a764000060ff8316610735565b6106238684610735565b61062d9190610721565b915061063982846106f8565b92508061064581610796565b9150506105f9565b50909392505050565b6000806040838503121561066957600080fd5b50508035926020909101359150565b60006020828403121561068a57600080fd5b5035919050565b6000806000606084860312156106a657600080fd5b8335925060208401359150604084013580151581146106c457600080fd5b809150509250925092565b634e487b7160e01b600052601160045260246000fd5b81810381811115610260576102606106cf565b80820180821115610260576102606106cf565b634e487b7160e01b600052601260045260246000fd5b6000826107305761073061070b565b500490565b8082028115828204841417610260576102606106cf565b60008261075b5761075b61070b565b600160ff1b821460001984141615610775576107756106cf565b500590565b6000600160ff1b820161078f5761078f6106cf565b5060000390565b600060ff821660ff81036107ac576107ac6106cf565b6001019291505056fea2646970667358221220b07442e011c70a036cf5f7e10bc6c1cf2eeb39e689ecf6a5b72aede8566e5d4b64736f6c634300081b0033",
  "linkReferences": {},
  "deployedLinkReferences": {}
}