{
  "_format": "hh-sol-artifact-1",
  "contractName": "BondedToken",
  "sourceName": "contracts/core/BondedToken.sol",
  "abi": [
    {
      "inputs": [
        {
          "internalType": "string",
          "name": "name",
          "type": "string"
        },
        {
          "internalType": "string",
          "name": "symbol",
          "type": "string"
        },
        {
          "internalType": "address",
          "name": "_bondingCurve",
          "type": "address"
        },
        {
          "internalType": "address",
          "name": "_paymentToken",
          "type": "address"
        },
        {
          "internalType": "address",
          "name": "initialOwner",
          "type": "address"
        }
      ],
      "stateMutability": "nonpayable",
      "type": "constructor"
    },
    {
      "inputs": [
        {
          "internalType": "address",
          "name": "spender",
          "type": "address"
        },
        {
          "internalType": "uint256",
          "name": "allowance",
          "type": "uint256"
        },
        {
          "internalType": "uint256",
          "name": "needed",
          "type": "uint256"
        }
      ],
      "name": "ERC20InsufficientAllowance",
      "type": "error"
    },
    {
      "inputs": [
        {
          "internalType": "address",
          "name": "sender",
          "type": "address"
        },
        {
          "internalType": "uint256",
          "name": "balance",
          "type": "uint256"
        },
        {
          "internalType": "uint256",
          "name": "needed",
          "type": "uint256"
        }
      ],
      "name": "ERC20InsufficientBalance",
      "type": "error"
    },
    {
      "inputs": [
        {
          "internalType": "address",
          "name": "approver",
          "type": "address"
        }
      ],
      "name": "ERC20InvalidApprover",
      "type": "error"
    },
    {
      "inputs": [
        {
          "internalType": "address",
          "name": "receiver",
          "type": "address"
        }
      ],
      "name": "ERC20InvalidReceiver",
      "type": "error"
    },
    {
      "inputs": [
        {
          "internalType": "address",
          "name": "sender",
          "type": "address"
        }
      ],
      "name": "ERC20InvalidSender",
      "type": "error"
    },
    {
      "inputs": [
        {
          "internalType": "address",
          "name": "spender",
          "type": "address"
        }
      ],
      "name": "ERC20InvalidSpender",
      "type": "error"
    },
    {
      "inputs": [
        {
          "internalType": "address",
          "name": "owner",
          "type": "address"
        }
      ],
      "name": "OwnableInvalidOwner",
      "type": "error"
    },
    {
      "inputs": [
        {
          "internalType": "address",
          "name": "account",
          "type": "address"
        }
      ],
      "name": "OwnableUnauthorizedAccount",
      "type": "error"
    },
    {
      "anonymous": false,
      "inputs": [
        {
          "indexed": true,
          "internalType": "address",
          "name": "owner",
          "type": "address"
        },
        {
          "indexed": true,
          "internalType": "address",
          "name": "spender",
          "type": "address"
        },
        {
          "indexed": false,
          "internalType": "uint256",
          "name": "value",
          "type": "uint256"
        }
      ],
      "name": "Approval",
      "type": "event"
    },
    {
      "anonymous": false,
      "inputs": [
        {
          "indexed": true,
          "internalType": "address",
          "name": "buyer",
          "type": "address"
        },
        {
          "indexed": false,
          "internalType": "uint256",
          "name": "amount",
          "type": "uint256"
        },
        {
          "indexed": false,
          "internalType": "uint256",
          "name": "payment",
          "type": "uint256"
        }
      ],
      "name": "Buy",
      "type": "event"
    },
    {
      "anonymous": false,
      "inputs": [
        {
          "indexed": true,
          "internalType": "address",
          "name": "previousOwner",
          "type": "address"
        },
        {
          "indexed": true,
          "internalType": "address",
          "name": "newOwner",
          "type": "address"
        }
      ],
      "name": "OwnershipTransferred",
      "type": "event"
    },
    {
      "anonymous": false,
      "inputs": [
        {
          "indexed": true,
          "internalType": "address",
          "name": "seller",
          "type": "address"
        },
        {
          "indexed": false,
          "internalType": "uint256",
          "name": "amount",
          "type": "uint256"
        },
        {
          "indexed": false,
          "internalType": "uint256",
          "name": "payment",
          "type": "uint256"
        }
      ],
      "name": "Sell",
      "type": "event"
    },
    {
      "anonymous": false,
      "inputs": [
        {
          "indexed": true,
          "internalType": "address",
          "name": "from",
          "type": "address"
        },
        {
          "indexed": true,
          "internalType": "address",
          "name": "to",
          "type": "address"
        },
        {
          "indexed": false,
          "internalType": "uint256",
          "name": "value",
          "type": "uint256"
        }
      ],
      "name": "Transfer",
      "type": "event"
    },
    {
      "inputs": [
        {
          "internalType": "address",
          "name": "owner",
          "type": "address"
        },
        {
          "internalType": "address",
          "name": "spender",
          "type": "address"
        }
      ],
      "name": "allowance",
      "outputs": [
        {
          "internalType": "uint256",
          "name": "",
          "type": "uint256"
        }
      ],
      "stateMutability": "view",
      "type": "function"
    },
    {
      "inputs": [
        {
          "internalType": "address",
          "name": "spender",
          "type": "address"
        },
        {
          "internalType": "uint256",
          "name": "value",
          "type": "uint256"
        }
      ],
      "name": "approve",
      "outputs": [
        {
          "internalType": "bool",
          "name": "",
          "type": "bool"
        }
      ],
      "stateMutability": "nonpayable",
      "type": "function"
    },
    {
      "inputs": [
        {
          "internalType": "address",
          "name": "account",
          "type": "address"
        }
      ],
      "name": "balanceOf",
      "outputs": [
        {
          "internalType": "uint256",
          "name": "",
          "type": "uint256"
        }
      ],
      "stateMutability": "view",
      "type": "function"
    },
    {
      "inputs": [],
      "name": "bondingCurve",
      "outputs": [
        {
          "internalType": "contract IBondingCurve",
          "name": "",
          "type": "address"
        }
      ],
      "stateMutability": "view",
      "type": "function"
    },
    {
      "inputs": [
        {
          "internalType": "uint256",
          "name": "amount",
          "type": "uint256"
        }
      ],
      "name": "buy",
      "outputs": [],
      "stateMutability": "payable",
      "type": "function"
    },
    {
      "inputs": [],
      "name": "decimals",
      "outputs": [
        {
          "internalType": "uint8",
          "name": "",
          "type": "uint8"
        }
      ],
      "stateMutability": "view",
      "type": "function"
    },
    {
      "inputs": [],
      "name": "isNativePayment",
      "outputs": [
        {
          "internalType": "bool",
          "name": "",
          "type": "bool"
        }
      ],
      "stateMutability": "view",
      "type": "function"
    },
    {
      "inputs": [],
      "name": "name",
      "outputs": [
        {
          "internalType": "string",
          "name": "",
          "type": "string"
        }
      ],
      "stateMutability": "view",
      "type": "function"
    },
    {
      "inputs": [],
      "name": "owner",
      "outputs": [
        {
          "internalType": "address",
          "name": "",
          "type": "address"
        }
      ],
      "stateMutability": "view",
      "type": "function"
    },
    {
      "inputs": [],
      "name": "paymentToken",
      "outputs": [
        {
          "internalType": "contract IERC20",
          "name": "",
          "type": "address"
        }
      ],
      "stateMutability": "view",
      "type": "function"
    },
    {
      "inputs": [],
      "name": "renounceOwnership",
      "outputs": [],
      "stateMutability": "nonpayable",
      "type": "function"
    },
    {
      "inputs": [
        {
          "internalType": "uint256",
          "name": "amount",
          "type": "uint256"
        }
      ],
      "name": "sell",
      "outputs": [],
      "stateMutability": "nonpayable",
      "type": "function"
    },
    {
      "inputs": [],
      "name": "symbol",
      "outputs": [
        {
          "internalType": "string",
          "name": "",
          "type": "string"
        }
      ],
      "stateMutability": "view",
      "type": "function"
    },
    {
      "inputs": [],
      "name": "totalSupply",
      "outputs": [
        {
          "internalType": "uint256",
          "name": "",
          "type": "uint256"
        }
      ],
      "stateMutability": "view",
      "type": "function"
    },
    {
      "inputs": [
        {
          "internalType": "address",
          "name": "to",
          "type": "address"
        },
        {
          "internalType": "uint256",
          "name": "value",
          "type": "uint256"
        }
      ],
      "name": "transfer",
      "outputs": [
        {
          "internalType": "bool",
          "name": "",
          "type": "bool"
        }
      ],
      "stateMutability": "nonpayable",
      "type": "function"
    },
    {
      "inputs": [
        {
          "internalType": "address",
          "name": "from",
          "type": "address"
        },
        {
          "internalType": "address",
          "name": "to",
          "type": "address"
        },
        {
          "internalType": "uint256",
          "name": "value",
          "type": "uint256"
        }
      ],
      "name": "transferFrom",
      "outputs": [
        {
          "internalType": "bool",
          "name": "",
          "type": "bool"
        }
      ],
      "stateMutability": "nonpayable",
      "type": "function"
    },
    {
      "inputs": [
        {
          "internalType": "address",
          "name": "newOwner",
          "type": "address"
        }
      ],
      "name": "transferOwnership",
      "outputs": [],
      "stateMutability": "nonpayable",
      "type": "function"
    },
    {
      "inputs": [
        {
          "internalType": "address",
          "name": "token",
          "type": "address"
        },
        {
          "internalType": "uint256",
          "name": "amount",
          "type": "uint256"
        }
      ],
      "name": "withdrawStuckTokens",
      "outputs": [],
      "stateMutability": "nonpayable",
      "type": "function"
    },
    {
      "stateMutability": "payable",
      "type": "receive"
    }
  ],
  "bytecode": "0x608060405234801561001057600080fd5b5060405161151738038061151783398101604081905261002f9161021a565b808585600361003e838261033e565b50600461004b828261033e565b5050506001600160a01b03811661007c57604051631e4fbdf760e01b81526000600482015260240160405180910390fd5b610085816100f3565b50600680546001600160a01b038086166001600160a01b03199092169190911790915560078054600160a01b92851615830260ff60a01b1990911617908190550460ff166100e957600780546001600160a01b0319166001600160a01b0384161790555b50505050506103fc565b600580546001600160a01b038381166001600160a01b0319831681179093556040519116919082907f8be0079c531659141344cd1fd0a4f28419497f9722a3daafe3b4186f6b6457e090600090a35050565b634e487b7160e01b600052604160045260246000fd5b600082601f83011261016c57600080fd5b81516001600160401b0381111561018557610185610145565b604051601f8201601f19908116603f011681016001600160401b03811182821017156101b3576101b3610145565b6040528181528382016020018510156101cb57600080fd5b60005b828110156101ea576020818601810151838301820152016101ce565b506000918101602001919091529392505050565b80516001600160a01b038116811461021557600080fd5b919050565b600080600080600060a0868803121561023257600080fd5b85516001600160401b0381111561024857600080fd5b6102548882890161015b565b602088015190965090506001600160401b0381111561027257600080fd5b61027e8882890161015b565b94505061028d604087016101fe565b925061029b606087016101fe565b91506102a9608087016101fe565b90509295509295909350565b600181811c908216806102c957607f821691505b6020821081036102e957634e487b7160e01b600052602260045260246000fd5b50919050565b601f82111561033957806000526020600020601f840160051c810160208510156103165750805b601f840160051c820191505b818110156103365760008155600101610322565b50505b505050565b81516001600160401b0381111561035757610357610145565b61036b8161036584546102b5565b846102ef565b6020601f82116001811461039f57600083156103875750848201515b600019600385901b1c1916600184901b178455610336565b600084815260208120601f198516915b828110156103cf57878501518255602094850194600190920191016103af565b50848210156103ed5786840151600019600387901b60f8161c191681555b50505050600190811b01905550565b61110c8061040b6000396000f3fe60806040526004361061010d5760003560e01c806395d89b4111610095578063dcd57c9711610064578063dcd57c97146102da578063dd62ed3e146102fb578063e4849b3214610341578063eff1d50e14610361578063f2fde38b1461038157600080fd5b806395d89b4114610272578063a9059cbb14610287578063bd61f0a6146102a7578063d96a094a146102c757600080fd5b80633013ce29116100dc5780633013ce29146101b3578063313ce567146101eb57806370a0823114610207578063715018a61461023d5780638da5cb5b1461025457600080fd5b806306fdde0314610119578063095ea7b31461014457806318160ddd1461017457806323b872dd1461019357600080fd5b3661011457005b600080fd5b34801561012557600080fd5b5061012e6103a1565b60405161013b9190610ee6565b60405180910390f35b34801561015057600080fd5b5061016461015f366004610f50565b610433565b604051901515815260200161013b565b34801561018057600080fd5b506002545b60405190815260200161013b565b34801561019f57600080fd5b506101646101ae366004610f7a565b61044d565b3480156101bf57600080fd5b506007546101d3906001600160a01b031681565b6040516001600160a01b03909116815260200161013b565b3480156101f757600080fd5b506040516012815260200161013b565b34801561021357600080fd5b50610185610222366004610fb7565b6001600160a01b031660009081526020819052604090205490565b34801561024957600080fd5b50610252610471565b005b34801561026057600080fd5b506005546001600160a01b03166101d3565b34801561027e57600080fd5b5061012e610485565b34801561029357600080fd5b506101646102a2366004610f50565b610494565b3480156102b357600080fd5b506102526102c2366004610f50565b6104a2565b6102526102d5366004610fd9565b6105ba565b3480156102e657600080fd5b5060075461016490600160a01b900460ff1681565b34801561030757600080fd5b50610185610316366004610ff2565b6001600160a01b03918216600090815260016020908152604080832093909416825291909152205490565b34801561034d57600080fd5b5061025261035c366004610fd9565b61084a565b34801561036d57600080fd5b506006546101d3906001600160a01b031681565b34801561038d57600080fd5b5061025261039c366004610fb7565b610ad0565b6060600380546103b090611025565b80601f01602080910402602001604051908101604052809291908181526020018280546103dc90611025565b80156104295780601f106103fe57610100808354040283529160200191610429565b820191906000526020600020905b81548152906001019060200180831161040c57829003601f168201915b5050505050905090565b600033610441818585610b0e565b60019150505b92915050565b60003361045b858285610b1b565b610466858585610b99565b506001949350505050565b610479610bf8565b6104836000610c25565b565b6060600480546103b090611025565b600033610441818585610b99565b6104aa610bf8565b600754600160a01b900460ff161580156104d257506007546001600160a01b03838116911614155b6105235760405162461bcd60e51b815260206004820152601d60248201527f43616e6e6f74207769746864726177207061796d656e7420746f6b656e00000060448201526064015b60405180910390fd5b816001600160a01b031663a9059cbb6105446005546001600160a01b031690565b6040516001600160e01b031960e084901b1681526001600160a01b039091166004820152602481018490526044016020604051808303816000875af1158015610591573d6000803e3d6000fd5b505050506040513d601f19601f820116820180604052508101906105b5919061105f565b505050565b6006546000906001600160a01b031663ace4e8246105d760025490565b846040518363ffffffff1660e01b81526004016105fe929190918252602082015260400190565b602060405180830381865afa15801561061b573d6000803e3d6000fd5b505050506040513d601f19601f8201168201806040525081019061063f9190611081565b600754909150600160a01b900460ff1615610739578034101561069b5760405162461bcd60e51b8152602060048201526014602482015273125b9cdd59999a58da595b9d081c185e5b595b9d60621b604482015260640161051a565b80341115610734576000336106b083346110b0565b604051600081818185875af1925050503d80600081146106ec576040519150601f19603f3d011682016040523d82523d6000602084013e6106f1565b606091505b50509050806107325760405162461bcd60e51b815260206004820152600d60248201526c1499599d5b990819985a5b1959609a1b604482015260640161051a565b505b610800565b6007546040516323b872dd60e01b8152336004820152306024820152604481018390526001600160a01b03909116906323b872dd906064016020604051808303816000875af1158015610790573d6000803e3d6000fd5b505050506040513d601f19601f820116820180604052508101906107b4919061105f565b6108005760405162461bcd60e51b815260206004820152601d60248201527f5061796d656e7420746f6b656e207472616e73666572206661696c6564000000604482015260640161051a565b61080a3383610c77565b604080518381526020810183905233917f1cbc5ab135991bd2b6a4b034a04aa2aa086dac1371cb9b16b8b5e2ed6b036bed91015b60405180910390a25050565b336000908152602081905260409020548111156108a05760405162461bcd60e51b8152602060048201526014602482015273496e73756666696369656e742062616c616e636560601b604482015260640161051a565b6006546000906001600160a01b031663071f85216108bd60025490565b846040518363ffffffff1660e01b81526004016108e4929190918252602082015260400190565b602060405180830381865afa158015610901573d6000803e3d6000fd5b505050506040513d601f19601f820116820180604052508101906109259190611081565b90506109313383610cb1565b600754600160a01b900460ff16156109d757604051600090339083908381818185875af1925050503d8060008114610985576040519150601f19603f3d011682016040523d82523d6000602084013e61098a565b606091505b50509050806109d15760405162461bcd60e51b8152602060048201526013602482015272115512081d1c985b9cd9995c8819985a5b1959606a1b604482015260640161051a565b50610a98565b60075460405163a9059cbb60e01b8152336004820152602481018390526001600160a01b039091169063a9059cbb906044016020604051808303816000875af1158015610a28573d6000803e3d6000fd5b505050506040513d601f19601f82011682018060405250810190610a4c919061105f565b610a985760405162461bcd60e51b815260206004820152601d60248201527f5061796d656e7420746f6b656e207472616e73666572206661696c6564000000604482015260640161051a565b604080518381526020810183905233917fed7a144fad14804d5c249145e3e0e2b63a9eb455b76aee5bc92d711e9bba3e4a910161083e565b610ad8610bf8565b6001600160a01b038116610b0257604051631e4fbdf760e01b81526000600482015260240161051a565b610b0b81610c25565b50565b6105b58383836001610ce7565b6001600160a01b038381166000908152600160209081526040808320938616835292905220546000198114610b935781811015610b8457604051637dc7a0d960e11b81526001600160a01b0384166004820152602481018290526044810183905260640161051a565b610b9384848484036000610ce7565b50505050565b6001600160a01b038316610bc357604051634b637e8f60e11b81526000600482015260240161051a565b6001600160a01b038216610bed5760405163ec442f0560e01b81526000600482015260240161051a565b6105b5838383610dbc565b6005546001600160a01b031633146104835760405163118cdaa760e01b815233600482015260240161051a565b600580546001600160a01b038381166001600160a01b0319831681179093556040519116919082907f8be0079c531659141344cd1fd0a4f28419497f9722a3daafe3b4186f6b6457e090600090a35050565b6001600160a01b038216610ca15760405163ec442f0560e01b81526000600482015260240161051a565b610cad60008383610dbc565b5050565b6001600160a01b038216610cdb57604051634b637e8f60e11b81526000600482015260240161051a565b610cad82600083610dbc565b6001600160a01b038416610d115760405163e602df0560e01b81526000600482015260240161051a565b6001600160a01b038316610d3b57604051634a1406b160e11b81526000600482015260240161051a565b6001600160a01b0380851660009081526001602090815260408083209387168352929052208290558015610b9357826001600160a01b0316846001600160a01b03167f8c5be1e5ebec7d5bd14f71427d1e84f3dd0314c0f7b2291e5b200ac8c7c3b92584604051610dae91815260200190565b60405180910390a350505050565b6001600160a01b038316610de7578060026000828254610ddc91906110c3565b90915550610e599050565b6001600160a01b03831660009081526020819052604090205481811015610e3a5760405163391434e360e21b81526001600160a01b0385166004820152602481018290526044810183905260640161051a565b6001600160a01b03841660009081526020819052604090209082900390555b6001600160a01b038216610e7557600280548290039055610e94565b6001600160a01b03821660009081526020819052604090208054820190555b816001600160a01b0316836001600160a01b03167fddf252ad1be2c89b69c2b068fc378daa952ba7f163c4a11628f55a4df523b3ef83604051610ed991815260200190565b60405180910390a3505050565b602081526000825180602084015260005b81811015610f145760208186018101516040868401015201610ef7565b506000604082850101526040601f19601f83011684010191505092915050565b80356001600160a01b0381168114610f4b57600080fd5b919050565b60008060408385031215610f6357600080fd5b610f6c83610f34565b946020939093013593505050565b600080600060608486031215610f8f57600080fd5b610f9884610f34565b9250610fa660208501610f34565b929592945050506040919091013590565b600060208284031215610fc957600080fd5b610fd282610f34565b9392505050565b600060208284031215610feb57600080fd5b5035919050565b6000806040838503121561100557600080fd5b61100e83610f34565b915061101c60208401610f34565b90509250929050565b600181811c9082168061103957607f821691505b60208210810361105957634e487b7160e01b600052602260045260246000fd5b50919050565b60006020828403121561107157600080fd5b81518015158114610fd257600080fd5b60006020828403121561109357600080fd5b5051919050565b634e487b7160e01b600052601160045260246000fd5b818103818111156104475761044761109a565b808201808211156104475761044761109a56fea264697066735822122035c557317956196cd15afae3d1ba89bcc1e43e72492e5836f2ede67ab04e2eee64736f6c634300081b0033",
  "linkReferences": {},
  "deployedLinkReferences": {}
}